:100000000C942E010C9469030C9442030C94560139
:100010000C9456010C9456010C94C1070C94560193
:100020000C9456010C9456010C9456010C945601F4
:100030000C9456010C9456010C9456010C945601E4
:100040000C94870C0C9456010C94B6030C949003FA
:100050000C9456010C9456010C9456010C945601C4
:100060000C94E8030C945601010402000302048A74
:10007000050506C30B2019421E2C25802E902FAAA1
:10008000302D370038003C8F3D106F200020204E6F
:100090006574776F726B3A20002020467265717527
:1000A000656E63793A20343333204D487A0020203E
:1000B0004E6F64653A200052464D363943572065ED
:1000C0006E61626C65643A2000496E76616C6964A9
:1000D00020534937303231206465766963652049A1
:1000E000443A200053493730323120683A200053D7
:1000F000493730323120743A200053493730323199
:1001000020666F756E6420776974682049443A20D0
:100110000020445331384232302073656E736F7261
:100120007320286F6E6C7920666972737420757302
:1001300065642900446574656374656420006469BE
:100140007361626C656400656E61626C6564004336
:10015000757272656E74207472616E736475636516
:1001600072200052756E6E696E67206F6E20657822
:100170007465726E616C20737570706C7900426189
:1001800074746572793A200052756E6E696E6720DC
:100190006F6E206261747465727900537461727459
:1001A000696E672E2E2E005365616E204C65617658
:1001B0006579203C656C656374726F6E696373402A
:1001C00061747461636B6C6C616D612E636F6D3E05
:1001D00000546172616E736179205448207600008A
:1001E0005EBCE2613FDD83C29C7E20A3FD1F410017
:1001F0009D23BE46DB65F88C11AF32CA57E9740007
:100200000000002300260029000404040404040460
:1002100004020202020202030303030303010204B5
:100220000810204080010204081020010204081078
:100230002000000000240027002A00000000002504
:100240000028002B00000000080002010000030449
:1002500007000000000000000000D21311241FBEA0
:10026000CFEFD8E0DEBFCDBF11E0A0E0B1E0E4E623
:10027000FEE202C005900D92A435B107D9F724E043
:10028000A4E5B1E001C01D92A130B207E1F711E091
:10029000CEE2D1E004C02197FE010E942517CD32A5
:1002A000D107C9F70E94D10C0C9430170C940000B0
:1002B0000895CF92DF92EF92FF920F931F93CF9307
:1002C000DF936C017A018B01C0E0D0E0CE15DF0531
:1002D00081F0D8016D918D01D601ED91FC910190D5
:1002E000F081E02DC6010995892B11F02196EECF02
:1002F0007E01C701DF91CF911F910F91FF90EF9089
:10030000DF90CF900895FC01538D448D252F30E070
:10031000842F90E0821B930B541710F0CF96089512
:1003200001970895FC01918D828D981761F0828D5F
:10033000DF01A80FB11D5D968C91928D9F5F9F7319
:10034000928F90E008958FEF9FEF0895FC01918DBB
:10035000828D981731F0828DE80FF11D858D90E028
:1003600008958FEF9FEF0895FC01918D228D892FC5
:1003700090E0805C9F4F821B91098F7399270895AD
:100380008CE293E00E94B40121E0892B09F420E083
:10039000822F0895FC01848DDF01A80FB11DA35A9F
:1003A000BF4F2C91848D90E001968F739927848F95
:1003B000A689B7892C93A089B1898C9183708064B8
:1003C0008C93938D848D981306C00288F389E02D59
:1003D00080818F7D80830895EF92FF920F931F930A
:1003E000CF93DF93EC0181E0888F9B8D8C8D9813E8
:1003F00005C0E889F989808185FD26C0F62E0B8D20
:1004000010E00F5F1F4F0F731127E02E8C8DE81245
:100410000CC00FB607FCFACFE889F989808185FF07
:10042000F5CFCE010E94CA01F1CF8B8DFE01E80FFE
:10043000F11DE35AFF4FF0829FB7F8940B8FEA89C2
:10044000FB89808180620AC09FB7F894EE89FF899A
:100450006083E889F98980818370806480839FBF8D
:1004600081E090E0DF91CF911F910F91FF90EF908D
:100470000895CF93DF93EC01888D8823C9F0EA8932
:10048000FB89808185FD05C0A889B9898C9186FD8D
:100490000FC00FB607FCF5CF808185FFF2CFA8898A
:1004A000B9898C9185FFEDCFCE010E94CA01E7CFBB
:1004B000DF91CF91089580E090E0892B29F00E9490
:1004C000C00181110C940000089585ED8093BC005B
:1004D0008091BC0084FDFCCF1092070308954091E9
:1004E0009C02262F30E0240F311D21323105DCF42F
:1004F000209107032430C9F4FC0180E090E08617C6
:1005000058F430919C022191DC01A458BD4FA30FF7
:10051000B11D2C930196F3CF80919C02680F6093DC
:100520009C0280E0089581E0089582E00895089596
:1005300008950895E091C0028091BF02E81730F459
:10054000F0E0EF53FD4F808190E008958FEF9FEF33
:1005500008959091C0028091BF02981750F4E92F3E
:10056000F0E0EF53FD4F208130E09F5F9093C00299
:1005700002C02FEF3FEFC90108958091BF0290E0C4
:100580002091C002821B91090895CF92DF92EF92D1
:10059000FF920F931F93CF93DF937C01CB018A01CE
:1005A00020910803222389F0EB016B01C40ED51EB4
:1005B000CC15DD0569F06991D701ED91FC910190B1
:1005C000F081E02DC7010995F3CF642F0E946F02DF
:1005D000C801DF91CF911F910F91FF90EF90DF90B5
:1005E000CF900895CF93DF931F92CDB7DEB7698385
:1005F000209108032223D1F020912B03203240F0D8
:1006000021E030E0FC013383228380E090E015C0DC
:1006100080910903E82FF0E0E65FFC4F9981908319
:100620008F5F8093090380932B0305C061E0CE01A7
:1006300001960E946F0281E090E00F90DF91CF91D0
:100640000895089583FF02C098E2892787FD06C0B8
:1006500080649091600090937A0202C080917A0247
:1006600094B7977F94BFF8949091600098619093AD
:100670006000809360007894089580E090E0089591
:100680000E942B171F920F920FB60F9211242F93D7
:100690003F934F935F936F937F938F939F93AF930A
:1006A000BF93EF93FF93E0910201F091030109954D
:1006B000FF91EF91BF91AF919F918F917F916F913A
:1006C0005F914F913F912F910F900FBE0F901F9010
:1006D00018951F920F920FB60F9211242F933F93EC
:1006E0004F935F936F937F938F939F93AF93BF933A
:1006F000EF93FF93E0910001F09101010995FF91C3
:10070000EF91BF91AF919F918F917F916F915F9189
:100710004F913F912F910F900FBE0F901F90189502
:100720001F920F920FB60F9211242F933F934F9366
:100730005F936F937F938F939F93AF93BF93EF9349
:10074000FF938CE293E00E94CA01FF91EF91BF9169
:10075000AF919F918F917F916F915F914F913F9159
:100760002F910F900FBE0F901F9018951F920F9210
:100770000FB60F9211242F938F939F93EF93FF93B4
:10078000E0913C03F0913D038081E0914203F091C0
:10079000430382FD12C09081809145038F5F8F7368
:1007A00020914603821751F0E0914503F0E0E45DAB
:1007B000FC4F958F8093450301C08081FF91EF919D
:1007C0009F918F912F910F900FBE0F901F901895B2
:1007D0001F920F920FB60F9211242F933F934F93B6
:1007E0005F936F937F938F939F93AF93BF93EF9399
:1007F000FF938091B900887F803609F49CC068F52A
:10080000883209F45BC090F4803109F454C038F4A4
:10081000882309F4F6C0883009F44DC0F6C0883149
:1008200009F44CC0803209F45DC0EFC0803409F493
:1008300068C048F4803309F455C0883309F0E5C036
:1008400080930503D8C0803509F44FC0883509F47A
:100850005DC0883409F0D9C0D6C0883909F4C7C052
:10086000A8F4883709F467C038F4883609F463C0FF
:10087000803709F460C0C9C0883809F4B8C080392D
:1008800009F45FC0803809F0C0C05BC0803B09F448
:1008900086C038F4803A09F466C0883A09F47FC00B
:1008A000B4C0803C09F4A7C0883C09F4A4C0883BCC
:1008B00009F48AC0AAC08091E20210C0909104039A
:1008C00080910303981770F5E091040381E08E0F87
:1008D00080930403F0E0ED51FD4F80818093BB00D5
:1008E00085EC86C0809305038EC0E091040381E00F
:1008F0008E0F809304038091BB00F0E0ED51FD4F1B
:10090000808390910403809103036EC0E0910403FF
:1009100081E08E0F809304038091BB00F0E0ED51E5
:10092000FD4F80838091060381116DC081E080932B
:10093000E10284EA61C083E0809307031092BE0263
:10094000CFCF8091BE02803208F051C0E091BE024C
:1009500081E08E0F8093BE028091BB00F0E0E256F2
:10096000FD4F8083BDCF85EC8093BC0010920703C0
:100970008091BE02803230F4E091BE02F0E0E25697
:10098000FD4F10826091BE0270E0E0915401F09141
:1009900055018EE992E009951092BE0236C084E0BE
:1009A0008093070310929D0210929C02E0915601E1
:1009B000F0915701099580919C02811105C081E059
:1009C00080939C0210927C02E0919D0281E08E0F48
:1009D00080939D02F0E0E458FD4F80818093BB003E
:1009E00090919D0280919C02981708F479CF85E838
:1009F0008093BC000AC085EC8093BC001092070372
:100A000004C0109205030E946502FF91EF91BF910F
:100A1000AF919F918F917F916F915F914F913F9196
:100A20002F910F900FBE0F901F901895DC0180E062
:100A3000615098F02D91982F9227E92FEF70F0E0F8
:100A4000E152FE4F249192959F70E92FF0E0E15121
:100A5000FE4FE491822F8E27EBCF0895FC01908109
:100A60000180F281E02DF8948181892B818322819C
:100A7000892F809528232283A7E0B0E01197F1F712
:100A8000218182238183A3E2B0E01197F1F7808175
:100A90007894EFECF0E03197F1F7982381E009F4D6
:100AA00080E00895FC0190810180F281E02D892F82
:100AB000809560FF12C0F894228182238283818115
:100AC000892B8183A3E2B0E01197F1F78281982B03
:100AD0009283789487ED90E011C0F894228182236C
:100AE00082838181892B8183AFEFB0E01197F1F789
:100AF0008281982B928378948FE090E00197F1F7B0
:100B00000895DF92EF92FF920F931F93CF93DF939D
:100B1000EC01D62EE42E08E010E0FF24F39461E00F
:100B20008D2D8F2109F460E0CE010E945205FF0C4B
:100B300001501109A1F7E11010C0F894E981FA8180
:100B400091818881809589238183E981FA819281CD
:100B500088818095892382837894DF91CF911F913A
:100B60000F91FF90EF90DF900895EF92FF920F9317
:100B70001F93CF93DF938C017B0140E065E50E94DA
:100B80008105E70188E0E80EF11C699140E0C801A9
:100B90000E948105CE15DF05C1F7DF91CF911F912E
:100BA0000F91FF90EF900895DC012C911196ED913B
:100BB000FC911297F8948181922F909589238183DB
:100BC00078948DE743E050E0815021F1DA011197EC
:100BD000F1F730813223C1F3F89482818923828333
:100BE0008181822B81837894ABE7B7E01197F1F78D
:100BF000F89481819823918383E191E00197F1F743
:100C00008081282381E009F080E07894E3E6F6E033
:100C10003197F1F70895E8982A988EBD0DB407FE34
:100C2000FDCF8EB56EBD0DB407FEFDCF8EB52A9AF1
:100C3000E89A089560E00C940B06CF93C82F81E0EA
:100C40000E941A06837E682F6C2B81E8CF910C944A
:100C50000B0688E20E941A06807521F080E00E944F
:100C60001A06F7CF08958627682F62956827062E03
:100C7000669566956025062E669560256770082E38
:100C8000892F669507946795902D8627069467951A
:100C9000902586270895CF938091A601853009F08D
:100CA00052C060E485EA0E940B0684E20E941A06A4
:100CB0007894C8E488E20E941A068075D9F380917E
:100CC000A50181110FC0E0915801F0915901809167
:100CD000A50191E0980F9093A50190915C01E80F18
:100CE000F11D908380E00E941A06E0915801F09176
:100CF00059019091A50121E0290F2093A501E90F49
:100D0000F11D8083682F80915A0190915B010E94B0
:100D1000330690935B0180935A0180915F01833485
:100D200010F0C093A50180915F012091A50190E092
:100D3000049630E082179307ACF08091A5018834C7
:100D400008F4B8CF0FC088E20E941A0683FF0AC0D9
:100D500084E08093A6010E941D0660E885EACF9199
:100D60000C940B06CF910895CF92DF92EF92FF92F1
:100D70001F93CF93DF936C01EC0138E0E32EF12C4D
:100D8000C031D10508F43FC0CE0110E0803291059A
:100D900030F01F5F193019F096958795F7CF1092B4
:100DA0007B02812F0E94220390917A0080917A0029
:100DB0008F7780937A0083B7817F846083BFF894B4
:100DC00083B7816083BF85B7806685BF85B78F791C
:100DD000806485BF7894889583B78E7F83BF909316
:100DE0007A008FEF0E942203C70102C0880F991F6B
:100DF0001A95E2F7C81BD90B20917B02222329F018
:100E0000C81BD90BBDCF81E001C080E04091F80341
:100E10005091F9036091FA037091FB03CC1ADD0A3B
:100E20004C0D5D1D611D711D4093F8035093F90336
:100E30006093FA037093FB03DF91CF911F91FF90B2
:100E4000EF90DF90CF900895BF92CF92DF92EF9214
:100E5000FF920F931F93CF93DF932AE7E22EF12C9B
:100E6000F701B0800BE710E0F801C080CCE7D0E0DC
:100E7000D8800E94B406F701B082F801C082D882FF
:100E8000DF91CF911F910F91FF90EF90DF90CF9066
:100E9000BF900895EF92FF920F931F93CF93DF932C
:100EA00000D000D0CDB7DEB704E610E0F8018081B5
:100EB0008F77808385EE8C8361E070E0CE010496AD
:100EC0000E94940862E070E0CE0101960E942E0814
:100ED000E980FA80FE24EF24FE2480EE8B8361E01B
:100EE00070E0CE0103960E94940862E070E0CE01AB
:100EF00001960E942E0829813A8132272327322722
:100F0000F801808180688083A4EAB4E40E94A4147C
:100F10008D5492419093AA018093A9019701A4ED69
:100F2000B0E30E94A414885592409093A801809346
:100F3000A7010F900F900F900F90DF91CF911F910D
:100F40000F91FF90EF90089585E10E94300C24EE00
:100F50003CE0DC010E940A172FEF33E040E050E054
:100F60000E946314CA01B9010E94CF159B01AC0114
:100F70000E94B4140E9497157093AC016093AB016A
:100F800008951F920F920FB60F9211248F938091A4
:100F90007B028F5F80937B028F910F900FBE0F902B
:100FA0001F901895282F30912B03313208F04AC03A
:100FB000809107038111FCCF90912A0342E0409376
:100FC0000703209306032FEF2093050310920403D9
:100FD00030930303EAE0F3E0A3EEB2E020E032173F
:100FE00021F041914D932F5FFACF1092E2022091B0
:100FF000E202990F922B9093E2029091E1029130DC
:1010000061F41092E1029091E2029093BB00909102
:10101000BC0093FDF8CF95EC01C095EE9093BC0019
:10102000909107039230E1F3909105039F3F79F08F
:1010300080910503803241F080910503803331F0C7
:1010400084E005C081E003C082E001C083E010922B
:10105000090310922B03109208030895EF92FF9258
:101060000F931F93CF93DF937C018B018091070334
:101070008111FCCF802F013208F080E291E0909343
:101080000703909306032FEF2093050310920403A8
:10109000280F209303039093E2029091E20290685C
:1010A0009093E2029091E102913061F41092E1029A
:1010B0009091E2029093BB009091BC0093FDF8CF19
:1010C00095EC01C095EE9093BC0090910703913090
:1010D000E1F390910403981710F480910403E3EE78
:1010E000F2E0A1ECB2E090E0981721F021912D936D
:1010F0009F5FFACF1092C0029093BF02E701CE012A
:101100008E199F098017910734F489EC93E00E94AF
:10111000A9028993F4CF81E090E0DF91CF911F91F4
:101120000F91FF90EF900895EF92FF920F931F930E
:10113000CF93DF938C017B0181E08093080380E4EF
:1011400080932A031092090310922B03C0E0D0E091
:10115000CE15DF0554F40C0F1D1FF801608189ECDA
:1011600093E00E94F2022196F3CF81E0DF91CF91CC
:101170001F910F91FF90EF900C94D2078F929F9246
:10118000AF92BF92CF92DF92EF92FF920F931F9395
:10119000CF93DF938C01EB018091DC039091DD0311
:1011A0000E94D405882309F43DC0B8018091DC0376
:1011B0009091DD030E94B50540E06EEB8091DC0369
:1011C0009091DD030E9481058E015E0189E0A80EE9
:1011D000B11C8090DC039090DD0388E0C82ED12CF8
:1011E000F12CEE24E394C4010E942E058111FE2807
:1011F000EE0CE1E0CE1AD108B1F7F801F1928F01BF
:10120000EA15FB0531F78091DC039091DD030E9424
:10121000D405813039F468E0CE010E94160591E0D2
:101220002885281390E0892FDF91CF911F910F918E
:10123000FF90EF90DF90CF90BF90AF909F908F90F6
:101240000895CF93DF93CDB7DEB729970FB6F89403
:10125000DEBF0FBECDBFFC0120812031D1F0BE0129
:101260006F5F7F4F0E94BE08882389F08D818F3386
:1012700061F020F48F3159F489E00CC08F3519F0FA
:101280008F3739F004C08BE005C08AE003C080E0EE
:1012900001C08CE029960FB6F894DEBF0FBECDBF1B
:1012A000DF91CF910895BF92CF92DF92EF92FF929C
:1012B0000F931F93CF93DF93EC016B018D85811109
:1012C00005C0CE010E94D405811105C01B861D8674
:1012D0001C8680E060C040E060EFCE010E94810586
:1012E00001E0E12CB12C11E0CE010E942E05F82E78
:1012F000CE010E942E0591E0F91203C08130B1F4B5
:1013000034C02E2D30E0F8121BC08B85181738F42E
:10131000FE01E20FF31F8381802341F402C0811795
:1013200029F0F12C193058F41C8709C0FE01EE0D8C
:10133000F11D8381802B8383FF24F39409C0B12E98
:10134000FE01E20FF31F9381802F80958923838311
:101350006F2DCE010E9452051F5F000F11F4E39420
:1013600001E087E08E1508F0BFCF113408F4AECF4E
:10137000BB86B11002C081E08D878B81882309F480
:10138000A5CFDE011396F6012B968D918193CA1796
:10139000DB07D9F781E0DF91CF911F910F91FF908B
:1013A000EF90DF90CF90BF900895009769F0FC0117
:1013B00001900020E9F73197AF01481B590BBC01A0
:1013C0008CE293E00C94590180E090E008958F92B4
:1013D0009F92AF92BF920F931F93CF93DF93CDB79E
:1013E000DEB7A1970FB6F894DEBF0FBECDBF19A22E
:1013F000423008F44AE08E010F5D1F4F842E912C7D
:10140000A12CB12CA50194010E948214E62FB901F0
:10141000CA0101501109EA3014F4E05D01C0E95C31
:10142000D801EC93232B242B252B61F7C8010E94B4
:10143000D509A1960FB6F894DEBF0FBECDBFDF91E0
:10144000CF911F910F91BF90AF909F908F90089573
:101450000F931F93CF93DF938C01C0E0D0E0F8018E
:10146000EC0FFD1F6491662341F08CE293E00E9433
:10147000EC01892B11F02196F2CFCE01DF91CF91B3
:101480001F910F910895CF93DF930E94280AEC01DA
:1014900089E391E00E94D5098C0F9D1FDF91CF91C8
:1014A0000895CF92DF92EF92FF92CF93DF936C017A
:1014B000990FEE08FF08F7FE13C06DE28CE293E08F
:1014C0000E94EC01EC0166277727CB016C197D099E
:1014D0008E099F094AE00E94E709C80FD91F06C07C
:1014E0004AE0C701B6010E94E709EC0189E391E0F7
:1014F0000E94D5098C0F9D1FDF91CF91FF90EF9037
:10150000DF90CF900895833081F028F4813099F0F6
:101510008230A1F008958730A9F08830B9F0843086
:10152000D1F4809180008F7D03C0809180008F77FF
:1015300080938000089584B58F7702C084B58F7D35
:1015400084BD08958091B0008F7703C08091B00072
:101550008F7D8093B00008953FB7F8948091FD038C
:101560009091FE03A091FF03B091000426B5A89BC3
:1015700005C02F3F19F00196A11DB11D3FBFBA2F25
:10158000A92F982F8827820F911DA11DB11DBC0185
:10159000CD0142E0660F771F881F991F4A95D1F74A
:1015A00008954F925F926F927F928F929F92AF9227
:1015B000BF92CF92DF92EF92FF926B017C019B0171
:1015C000AC010E94F116882319F087E491E01AC05B
:1015D00046015701E894B7F82FEF3FEF4FE75FE779
:1015E000C501B4010E94F116811110C02FEF3FEF29
:1015F0004FE75FE7C501B4010E942015181634F4C7
:101600008BE491E00E94D5097C0183C02FEF3FEF6E
:101610004FE75FE4C701B6010E947F1618161CF45D
:101620008FE491E0EFCF2FEF3FEF4FE75FECC70183
:10163000B6010E94201587FDF3CF20E030E0A9011C
:10164000C701B6010E94201587FF0BC06DE28CE236
:1016500093E00E94EC015C01F7FAF094F7F8F09443
:1016600002C0A12CB12C2AE037ED43EA5BE3C701AD
:10167000B6010E94B4142B013C010E949E156B011F
:101680007C010E94CD159B01AC01C301B2010E94F7
:10169000B3142B013C014AE0C701B6010E94E709DF
:1016A0007C01EA0CFB1C6EE28CE293E00E94EC01F0
:1016B000E80EF91E20E030E040E251E4C301B2013F
:1016C0000E9484162B013C010E949E154B01A12C07
:1016D000B12C4AE0C501B4010E94E709E80EF91EE9
:1016E000C501B4010E94CD159B01AC01C301B2013B
:1016F0000E94B31420E030E040E251E40E948416DE
:101700000E949E1580E090E04AE00E94E709E80E02
:10171000F91E89E391E00E94D5098E0D9F1DFF906F
:10172000EF90DF90CF90BF90AF909F908F907F9081
:101730006F905F904F900895CF93DF93282F30E004
:10174000F901EB5BFD4F8491F901E35EFD4FD4910C
:10175000F901E75FFD4FC491CC2391F081110E9404
:10176000830AEC2FF0E0EE0FFF1FE150FE4FA59132
:10177000B491EC91ED2381E090E021F480E002C08F
:1017800080E090E0DF91CF9108951F93CF93DF9396
:10179000282F30E0F901EB5BFD4F8491F901E35E06
:1017A000FD4FD491F901E75FFD4FC491CC23C1F007
:1017B000162F81110E94830AEC2FF0E0EE0FFF1F1D
:1017C000E55CFD4FA591B4919FB7F894111104C049
:1017D0008C91D095D82302C0EC91DE2BDC939FBF77
:1017E000DF91CF911F910895CF93DF9390E0FC019B
:1017F000E35EFD4F2491FC01E75FFD4F8491882358
:1018000061F190E0880F991FFC01EF5CFD4FC591DD
:10181000D491FC01E55CFD4FA591B491611109C023
:101820009FB7F8948881209582238883EC912E239A
:101830000BC0623061F49FB7F8948881322F3095E5
:1018400083238883EC912E2B2C939FBF06C08FB7E8
:10185000F894E8812E2B28838FBFDF91CF910895D4
:101860008E3008F08E502091080190E4299F90015D
:1018700011248770822B80937C0080917A00806491
:1018800080937A0080917A0086FDFCCF8091780069
:101890002091790090E0922B08958F929F92AF92C1
:1018A000BF92CF92DF92EF92FF926B017C010E9478
:1018B000AC0A4B015C01C114D104E104F104F1F064
:1018C0000E94AC0ADC01CB0188199909AA09BB095D
:1018D000883E9340A105B10570F321E0C21AD108FA
:1018E000E108F10888EE880E83E0981EA11CB11C67
:1018F000C114D104E104F10419F7DDCFFF90EF909A
:10190000DF90CF90BF90AF909F908F9008951F92DF
:101910000F920FB60F9211242F933F938F939F93A3
:10192000AF93BF938091F8039091F903A091FA03CC
:10193000B091FB033091FC0323E0230F2D3720F4FB
:101940000196A11DB11D05C026E8230F0296A11D19
:10195000B11D2093FC038093F8039093F903A093A7
:10196000FA03B093FB038091FD039091FE03A091D5
:10197000FF03B09100040196A11DB11D8093FD03EA
:101980009093FE03A093FF03B0930004BF91AF9127
:101990009F918F913F912F910F900FBE0F901F90AD
:1019A0001895CF93DF93CDB7DEB761970FB6F89454
:1019B000DEBF0FBECDBF789484B5826084BD84B590
:1019C000816084BD85B5826085BD85B5816085BD3A
:1019D00080916E00816080936E00109281008091F2
:1019E000810082608093810080918100816080937A
:1019F0008100809180008160809380008091B1009F
:101A000084608093B1008091B00081608093B000C9
:101A100080917A00846080937A0080917A0082605D
:101A200080937A0080917A00816080937A0080911F
:101A30007A00806880937A001092C10064E670E0BA
:101A400080E090E00E944D0C61E086E00E94F40B83
:101A500061E086E00E94C50BE0913C03F0913D03FC
:101A600082E08083E0913803F09139031082E091A5
:101A70003A03F0913B0383E3808310924403E091A7
:101A80004003F091410386E08083E0913E03F091B2
:101A90003F03808180618083E0913E03F0913F03AA
:101AA000808188608083E0913E03F0913F038081D4
:101AB00080688083E0913E03F0913F0380818F7DB9
:101AC000808360E085E10E94F40B81E0809308014F
:101AD00085E10E94300C85E10E94300C21E018164F
:101AE00019060CF020E020932A0260E08FE00E94AB
:101AF000F40B8FE00E94300C21E0181619060CF050
:101B000020E0209312028FE090E09093C90180932F
:101B1000C8018DEC9CECA5EBB2E48093CE019093D0
:101B2000CF01A093D001B093D10180E090E0A0E07C
:101B3000B4E48093EA019093EB01A093EC01B0939D
:101B4000ED0161E081E10E94F40B60E081E10E941F
:101B5000C50B61E081E10E94C50B82E390E00E9429
:101B60002407E091DC03F091DD03138615861486CB
:101B7000DF011B9633961E92AE17BF07E1F7109256
:101B8000DA031092DB0311E0BE016F5F7F4F80919B
:101B9000DC039091DD030E945309882309F45CC0A3
:101BA00067E0CE0101960E94160598858913ECCF57
:101BB0008091D603811127C08091DC039091DD03D1
:101BC0000E94D405BE016F5F7F4F8091DC0390912E
:101BD000DD030E94B50540E064EB8091DC03909149
:101BE000DD030E9481058091DC039091DD030E945A
:101BF0002E05082F8091DC039091DD030E94D4050F
:101C0000002309F41AC50091D703CE0101960E9462
:101C10002109801718F48091D70304C0CE010196E2
:101C20000E9421098093D7038091DA038F5F80930C
:101C3000DA038981883209F403C538F4803109F464
:101C4000FFC4823209F0A0CFFBC48B3309F4F8C47F
:101C5000823409F099CFF4C41092D8038091DA034A
:101C600090E09093110280931002892B51F081E053
:101C70008093200266E172E08AEE93E00E945309AD
:101C800006C08AED9DEF90931F0280931E0260E0D4
:101C900081E10E94C50B809164008F77809364007E
:101CA00082E10E949C0B019731F083E10E949C0B22
:101CB000019709F070C01092C0021092BF021092FA
:101CC000090310922B031092070311E010930603EF
:101CD0001092E10261E082E10E94C50B61E083E1C4
:101CE0000E94C50B8091B9008E7F8093B9008091CE
:101CF000B9008D7F8093B90088E48093B80085E4B3
:101D00008093BC0087E992E090935701809356013D
:101D100088E992E090935501809354011093080351
:101D200080E480932A031092090310922B0381E030
:101D30000E94D207811102C01093B10162E070E0ED
:101D400086E091E00E94940868E070E0CE01019680
:101D50000E942E0862E070E084E091E00E94940806
:101D600066E070E0CE0101960E942E08898190E025
:101D700090930F0280930E0280916400806880939C
:101D8000640080910E0290910F028D30910531F028
:101D90004497029718F01092210203C081E08093CB
:101DA00021026AE070E080E090E00E944D0C80E04B
:101DB00090E8ACE6B0E08093AD019093AE01A093C3
:101DC000AF01B093B00182ED80935C0189E1809313
:101DD000130264E170E080E090E00E944D0C8BE41F
:101DE00096E09093010180930001809169008360E7
:101DF00080936900E89A2A9A229A2A9A84B18C627E
:101E000084B980E58CBD8DB581608DBD6AEA8FEAAD
:101E10000E940B068FE20E941A068A3AB9F765E51E
:101E20008FEA0E940B068FE20E941A068535B9F7E9
:101E300008E610E0F8018491882341F0319664911E
:101E400080680E940B060E5F1F4FF4CF60915C010B
:101E500081EB0E940B068090AD019090AE01A090A6
:101E6000AF01B090B001B5018827992787E80E949B
:101E70000B0699278B2D7A2D692D88E80E940B0679
:101E8000682D89E80E940B0684E08093A60160E03B
:101E900086E00E94C50B81ED91E00E94280A83E351
:101EA00091E00E94D50989E391E00E94D50987EA73
:101EB00091E00E94430A8BE991E00E94430A60EDA1
:101EC00077E080E090E00E944D0C80912A02882308
:101ED00089F088E891E00E94430A0E94A4078EE7F7
:101EE00091E00E94280A8091AB019091AC010E9480
:101EF000510A04C083E691E00E94430A8FE491E016
:101F00000E94280A80911202882319F087E491E048
:101F100002C08EE391E00E94430A84E391E00E94B4
:101F2000280A609110027091110280E090E04AE06E
:101F30000E94E70981E191E00E94430A8CE391E06D
:101F40000E94D50906E112E0C80186519240089727
:101F500074F485E491E00E94D509F80161918F0144
:101F600070E080E090E040E10E94E709EDCF89E376
:101F700091E00E94D509809121028823C9F18AEF5E
:101F800090E00E94280A80910E0290910F020E9418
:101F9000510A0E944A078FEE90E00E94280A609141
:101FA000A9017091AA01072E000C880B990B0E94C1
:101FB000CF1520E030E048EC52E40E9425150E9445
:101FC000D10A84EE90E00E94280A6091A7017091E6
:101FD000A801072E000C880B990B0E94CF1520E05A
:101FE00030E048EC52E40E9425150E94D10A0AC054
:101FF00089EC90E00E94280A80910E0290910F02D5
:102000000E94510A60ED77E080E090E00E944D0C64
:1020100087EB90E00E94430A8EEA90E00E94280A33
:102020004AE069E170E080E090E00E94E70989E31E
:1020300091E00E94D50989E990E00E94430A8DE869
:1020400090E00E94280A4AE062ED70E080E090E0B3
:102050000E94E70989E391E00E94D50964E170E0FC
:1020600080E090E00E944D0C80ED92E0A0E0B0E0B6
:1020700080932B0290932C02A0932D02B0932E02FA
:1020800062E085E00E94F40B62E087E00E94F40BBE
:1020900062E088E00E94F40B62E089E00E94F40BA9
:1020A00062E08EE00E94F40B62E084E10E94F40B97
:1020B00062E083E00E94F40B62E084E00E94F40B93
:1020C00080B7806880BF80916400806880936400DE
:1020D000809164008860809364000DE511E0E5E084
:1020E000FE2E80E590E00E94B406882399F080914E
:1020F0002B0290912C02A0912D02B0912E020196FC
:10210000A11DB11D80932B0290932C02A0932D0250
:10211000B0932E0280912B0290912C02A0912D025F
:10212000B0912E02823B9240A105B10508F482C213
:1021300080912A02882319F00E94A40704C01092FB
:10214000AC011092AB018091AB019091AC019093E6
:1021500023028093220280912102882371F10E9440
:102160004A076091A9017091AA01072E000C880B03
:10217000990B0E94CF152DEC3CEC4CEC5DE30E94DA
:1021800084160E9497157093250260932402609133
:10219000A7017091A801072E000C880B990B0E94D3
:1021A000CF152DEC3CEC4CEC5DE30E9484160E94B4
:1021B000971570932702609326028091200288234E
:1021C00009F496C161E081E10E94C50B82E390E0D1
:1021D0000E94240786E192E00E9421098C3009F4D4
:1021E0009FC0BE016F5F7F4F86E192E00E94BE08F4
:1021F000882309F495C080911602803109F490C0BB
:102200008FE78D838091DC039091DD030E94D405DC
:1022100066E172E08091DC039091DD030E94B505D8
:1022200040E06EE48091DC039091DD030E94810523
:1022300040E06B818091DC039091DD030E94810579
:1022400040E06C818091DC039091DD030E94810568
:1022500080911602803141F040E06D818091DC0375
:102260009091DD030E9481058091DC039091DD0354
:102270000E94D40566E172E08091DC039091DD0359
:102280000E94B5054091D60368E48091DC039091EB
:10229000DD030E94810564E170E080E090E00E942F
:1022A0004D0C8091D603882331F06AE070E080E025
:1022B00090E00E944D0C8091DC039091DD030E9420
:1022C000D4058091D7038D3020F48CE08093D70320
:1022D00027C08CE08093D703A12CB12C8091DA0326
:1022E00090E0A816B906E4F48A2CE091DC03F091A2
:1022F000DD03138615861486DF011B9633961E9226
:10230000EA17FB07E1F7912CBE01665F7F4F8091D2
:10231000DC039091DD030E945309811197C1A0C194
:102320008091DC039091DD030E94D40540E06CECC9
:102330008091DC039091DD030E9481054091D603DA
:1023400064E48091DC039091DD030E94810580911B
:10235000D803882309F449C0E091D703E950E3305A
:1023600040F4F0E0EE0FFF1FE75FFE4F60817181E8
:1023700002C06EEE72E08091D903882381F18091D2
:10238000D60381112CC08FB7F8944090F803509079
:10239000F9036090FA037090FB038FBF4B01770F36
:1023A000AA08BB088091DC039091DD030E942E05F2
:1023B0008130D9F02FB7F8948091F8039091F90308
:1023C000A091FA03B091FB032FBF88199909AA09BC
:1023D000BB0984159505A605B70520F306C0072E91
:1023E000000C880B990B0E944D0C8EEE92E00E941F
:1023F0002407BE016F5F7F4F86E192E00E94BE0816
:10240000882369F12A8130E0C901982F8827990F24
:10241000990F990F698148E0649FB00111249C01D4
:10242000262B372B809116028031E1F4688570E00D
:102430008F81FB01E81BF109CF019695982F882722
:10244000979587950E94F61660517109207F53E099
:10245000220F331F5A95E1F7620F731F04C060E823
:1024600074EE01C0B9016138F4EE7F077CF0072EED
:10247000000C880B990B0E94CF1520E030E040E063
:102480005CE30E9484164B015C0106C0812C912CF8
:102490003EEFA32E32ECB32E60E081E10E94C50B2B
:1024A00020E030E04AEF52E4C501B4010E947F16FB
:1024B000181654F020E030E04CE552ECC501B401B0
:1024C0000E94201587FF06C0812C912C2CE5A22E9E
:1024D00022ECB22E20E030E040E251E4C501B4012C
:1024E0000E9484160E94971570931F0260931E022B
:1024F00080911E0290911F029093290280932802DE
:10250000809164008B7F8093640084E00E941D06AC
:1025100084E08093A6018EE190E00E94240794E07D
:10252000B92E8091A601853029F48091A5018823D8
:1025300009F4AFC08091A601843019F0853019F1FB
:1025400030C010925F011092A50160915C018FEF85
:102550009FEF0E94330690935B0180935A01109382
:10256000590100935801F092A6010E94290660E8E3
:1025700085EA0E940B0680E10E941D0662E08EE95A
:102580000E940B060EC080915F012091A50190E092
:10259000049630E0821793073CF08091A5018834BF
:1025A00018F48FEF9FEF26C0B092A60184E00E943E
:1025B0001D0680915F0120915A0130915B01232B10
:1025C00009F0EAC0833408F0E7C080915E0186FF1D
:1025D000E6C0309113023F3109F4E1C020915E0161
:1025E0002F7181E090E0231302C080E090E091958C
:1025F00081959109909315028093140280911402A1
:10260000909115028ECF80E00E941D0684E0809399
:10261000A60184E690E00E94240780916400846013
:102620008093640010922B0210922C0210922D02C3
:1026300010922E020E945B0254CD1093D603E3CA7F
:102640008091DB038F5F8093DB039ECA89101DC0DE
:1026500067E0CE010A960E9416059989891315C074
:102660009090D703CE010A960E942109891518F48B
:102670008091D70304C0CE010A960E94210980935D
:10268000D7032FEFA21AB20A29CE9394891440F3EC
:102690003BCE84E08093A6010E941D0688E08093D3
:1026A0005F01E2E2F2E080E090E0DC01A05ABE4F80
:1026B00021912C93019688309105B9F780911302EE
:1026C00080935E0160915C018FEF9FEF0E94330663
:1026D00090935B0180935A0190915F018EEF891B6B
:1026E0008093A6010E9429068CE00E941D0660E0EE
:1026F00085EA0E940B068091A6018330E4F588E20A
:102700000E941A0687FDF7CF8091A60187FF1BC0A4
:1027100090915F018091A601E0915801F0915901DB
:10272000E90FF11DE80FF11D87FDFA95B3806B2DC0
:1027300080915A0190915B010E94330690935B0156
:1027400080935A010EC08091A601882329F0813020
:1027500031F4B0905B0105C0B0905A0102C08AEA22
:10276000B82E6B2D80E80E940B068091A6018F5F2A
:102770008093A601C0CF8091A60184300CF043CF96
:1027800083B7817F846083BF83B7816083BF88956F
:1027900083B78E7F83BFEFCF81E090E02BCF80E0C7
:1027A00090E028CF10922F0310922E0388EE93E032
:1027B000A0E0B0E08093300390933103A093320304
:1027C000B093330323E131E030932D0320932C03A6
:1027D00025EC30E0309339032093380324EC30E0CB
:1027E00030933B0320933A0320EC30E030933D03D9
:1027F00020933C0321EC30E030933F0320933E03D1
:1028000022EC30E0309341032093400326EC30E08B
:1028100030934303209342031092450310924603E2
:1028200010924703109248031092CC031092CB03EE
:102830008093CD039093CE03A093CF03B093D003A6
:1028400085E291E09093CA038093C90360E080E140
:102850000E94F40BEDE2F2E0E491E093EA03E9E197
:10286000F2E0E491F0E0EE0FFF1FE150FE4F8591A2
:1028700094919093EC038093EB031092F5031092E4
:10288000F7031092F603E5EFF3E0129283E0ED3EDA
:10289000F807D9F78AEE93E09093DD038093DC0389
:1028A0001092DA031092DB031092D60389E0809332
:1028B000D70381E08093D8038093D9031092E90372
:1028C0001092E8030895052E97FB1EF400940E94D1
:1028D0007A1457FD07D00E94821407FC03D04EF4EF
:1028E0000C947A1450954095309521953F4F4F4F59
:1028F0005F4F089590958095709561957F4F8F4FAC
:102900009F4F0895A1E21A2EAA1BBB1BFD010DC00B
:10291000AA1FBB1FEE1FFF1FA217B307E407F5078F
:1029200020F0A21BB30BE40BF50B661F771F881F6B
:10293000991F1A9469F760957095809590959B0101
:10294000AC01BD01CF010895A29FB001B39FC001AA
:10295000A39F700D811D1124911DB29F700D811DCB
:102960001124911D08955058BB27AA270E94CB140B
:102970000C9445160E94371638F00E943E1620F03F
:1029800039F49F3F19F426F40C9434160EF4E095B4
:10299000E7FB0C942E16E92F0E94561658F3BA172F
:1029A000620773078407950720F079F4A6F50C9465
:1029B00078160EF4E0950B2EBA2FA02D0B01B9015D
:1029C00090010C01CA01A0011124FF27591B99F0A5
:1029D000593F50F4503E68F11A16F040A22F232FB1
:1029E000342F4427585FF3CF469537952795A79501
:1029F000F0405395C9F77EF41F16BA0B620B730BA8
:102A0000840BBAF09150A1F0FF0FBB1F661F771F18
:102A1000881FC2F70EC0BA0F621F731F841F48F4CD
:102A2000879577956795B795F7959E3F08F0B0CF56
:102A30009395880F08F09927EE0F9795879508953D
:102A40000E940A1608F481E008950E9439150C943A
:102A500045160E943E1658F00E94371640F029F4A1
:102A60005F3F29F00C942E1651110C9479160C949A
:102A700034160E94561668F39923B1F3552391F347
:102A8000951B550BBB27AA2762177307840738F0DD
:102A90009F5F5F4F220F331F441FAA1FA9F335D03A
:102AA0000E2E3AF0E0E832D091505040E695001CEE
:102AB000CAF72BD0FE2F29D0660F771F881FBB1FA8
:102AC000261737074807AB07B0E809F0BB0B802D86
:102AD000BF01FF2793585F4F3AF09E3F510578F0B2
:102AE0000C942E160C9479165F3FE4F3983ED4F3C1
:102AF000869577956795B795F7959F5FC9F7880F86
:102B0000911D9695879597F90895E1E0660F771FD7
:102B1000881FBB1F621773078407BA0720F0621B68
:102B2000730B840BBA0BEE1F88F7E09508950E9493
:102B30009E156894B1110C94791608950E945E1642
:102B400088F09F5798F0B92F9927B751B0F0E1F06E
:102B5000660F771F881F991F1AF0BA95C9F714C01E
:102B6000B13091F00E947816B1E008950C94781677
:102B7000672F782F8827B85F39F0B93FCCF3869557
:102B800077956795B395D9F73EF4909580957095B4
:102B900061957F4F8F4F9F4F0895E89409C097FB31
:102BA0003EF490958095709561957F4F8F4F9F4F24
:102BB0009923A9F0F92F96E9BB279395F695879568
:102BC00077956795B795F111F8CFFAF4BB0F11F42B
:102BD00060FF1BC06F5F7F4F8F4F9F4F16C08823D2
:102BE00011F096E911C0772321F09EE8872F762F08
:102BF00005C0662371F096E8862F70E060E02AF049
:102C00009A95660F771F881FDAF7880F9695879534
:102C100097F90895990F0008550FAA0BE0E8FEEF09
:102C200016161706E807F907C0F012161306E40790
:102C3000F50798F0621B730B840B950B39F40A2689
:102C400061F0232B242B252B21F408950A2609F467
:102C5000A140A6958FEF811D811D089597F99F676B
:102C600080E870E060E008959FEF80EC0895002414
:102C70000A941616170618060906089500240A94E1
:102C800012161306140605060895092E0394000C67
:102C900011F4882352F0BB0F40F4BF2B11F460FFF6
:102CA00004C06F5F7F4F8F4F9F4F089557FD90581F
:102CB000440F551F59F05F3F71F04795880F97FB00
:102CC000991F61F09F3F79F08795089512161306BA
:102CD0001406551FF2CF4695F1DF08C016161706E9
:102CE0001806991FF1CF869571056105089408951E
:102CF000E894BB2766277727CB0197F908950E94B0
:102D00000A1608F48FEF08950E9497160C94451642
:102D10000E94371638F00E943E1620F0952311F0DD
:102D20000C942E160C94341611240C9479160E94CF
:102D3000561670F3959FC1F3950F50E0551F629F93
:102D4000F001729FBB27F00DB11D639FAA27F00D04
:102D5000B11DAA1F649F6627B00DA11D661F829F2B
:102D60002227B00DA11D621F739FB00DA11D621F10
:102D7000839FA00D611D221F749F3327A00D611D2D
:102D8000231F849F600D211D822F762F6A2F11240F
:102D90009F5750409AF0F1F088234AF0EE0FFF1F42
:102DA000BB1F661F771F881F91505040A9F79E3F99
:102DB000510580F00C942E160C9479165F3FE4F3C5
:102DC000983ED4F3869577956795B795F795E795EF
:102DD0009F5FC1F7FE2B880F911D9695879597F9F8
:102DE00008950E940A16880B990B089597FB072EE9
:102DF00016F4009407D077FD09D00E94111707FC44
:102E000005D03EF4909581959F4F089570956195FA
:102E10007F4F08950E94A414B7FF0895821B930B5F
:102E20000895AA1BBB1B51E107C0AA1FBB1FA61711
:102E3000B70710F0A61BB70B881F991F5A95A9F763
:102E400080959095BC01CD010895EE0FFF1F059070
:102E5000F491E02D099481E090E0F8940C943017FF
:042E6000F894FFCF14
:102E640058015801FCC9FA0F015E00BC007701004B
:102E7400000000EC01590183013902B4019201A65A
:102E84000100000000F202C5023D039902BD02A93F
:102E9400029A02312E302E30000D0A004164647211
:102EA4006573733A0020006E616E00696E66006F90
:042EB400766600003E
:00000001FF
