:100000000C942E010C9469030C9442030C94560139
:100010000C9456010C9456010C94C1070C94560193
:100020000C9456010C9456010C9456010C945601F4
:100030000C9456010C9456010C9456010C945601E4
:100040000C94870C0C9456010C94B6030C949003FA
:100050000C9456010C9456010C9456010C945601C4
:100060000C94E8030C945601010402000302048A74
:10007000050506C30B2019421E2C25802E902FAAA1
:10008000302D370038003C8F3D106F200020204E6F
:100090006574776F726B3A20002020467265717527
:1000A000656E63793A20343333204D487A0020203E
:1000B0004E6F64653A200052464D363943572065ED
:1000C0006E61626C65643A2000496E76616C6964A9
:1000D00020534937303231206465766963652049A1
:1000E000443A200053493730323120683A200053D7
:1000F000493730323120743A200053493730323199
:1001000020666F756E6420776974682049443A20D0
:100110000020445331384232302073656E736F7261
:100120007320286F6E6C7920666972737420757302
:1001300065642900446574656374656420006469BE
:100140007361626C656400656E61626C6564004336
:10015000757272656E74207472616E736475636516
:1001600072200052756E6E696E67206F6E20657822
:100170007465726E616C20737570706C7900426189
:1001800074746572793A200052756E6E696E6720DC
:100190006F6E206261747465727900537461727459
:1001A000696E672E2E2E005365616E204C65617658
:1001B0006579203C656C656374726F6E696373402A
:1001C00061747461636B6C6C616D612E636F6D3E05
:1001D00000546172616E736179204354207600008F
:1001E0005EBCE2613FDD83C29C7E20A3FD1F410017
:1001F0009D23BE46DB65F88C11AF32CA57E9740007
:10020000000000240027002A00000000002500282C
:10021000002B00000000080002010000030407009A
:10022000000000000000000000000023002600295C
:10023000000404040404040404020202020202038F
:100240000303030303010204081020408001020499
:1002500008102001020408102000A61411241FBE5B
:10026000CFEFD8E0DEBFCDBF11E0A0E0B1E0E2EC1F
:10027000F0E302C005900D92A435B107D9F724E050
:10028000A4E5B1E001C01D92A530B207E1F711E08D
:10029000CEE2D1E004C02197FE010E945418CD3275
:1002A000D107C9F70E94D10C0C945F180C94000080
:1002B0000895CF92DF92EF92FF920F931F93CF9307
:1002C000DF936C017A018B01C0E0D0E0CE15DF0531
:1002D00081F0D8016D918D01D601ED91FC910190D5
:1002E000F081E02DC6010995892B11F02196EECF02
:1002F0007E01C701DF91CF911F910F91FF90EF9089
:10030000DF90CF900895FC01538D448D252F30E070
:10031000842F90E0821B930B541710F0CF96089512
:1003200001970895FC01918D828D981761F0828D5F
:10033000DF01A80FB11D5D968C91928D9F5F9F7319
:10034000928F90E008958FEF9FEF0895FC01918DBB
:10035000828D981731F0828DE80FF11D858D90E028
:1003600008958FEF9FEF0895FC01918D228D892FC5
:1003700090E0805C9F4F821B91098F7399270895AD
:1003800080E393E00E94B40121E0892B09F420E08E
:10039000822F0895FC01848DDF01A80FB11DA35A9F
:1003A000BF4F2C91848D90E001968F739927848F95
:1003B000A689B7892C93A089B1898C9183708064B8
:1003C0008C93938D848D981306C00288F389E02D59
:1003D00080818F7D80830895EF92FF920F931F930A
:1003E000CF93DF93EC0181E0888F9B8D8C8D9813E8
:1003F00005C0E889F989808185FD26C0F62E0B8D20
:1004000010E00F5F1F4F0F731127E02E8C8DE81245
:100410000CC00FB607FCFACFE889F989808185FF07
:10042000F5CFCE010E94CA01F1CF8B8DFE01E80FFE
:10043000F11DE35AFF4FF0829FB7F8940B8FEA89C2
:10044000FB89808180620AC09FB7F894EE89FF899A
:100450006083E889F98980818370806480839FBF8D
:1004600081E090E0DF91CF911F910F91FF90EF908D
:100470000895CF93DF93EC01888D8823C9F0EA8932
:10048000FB89808185FD05C0A889B9898C9186FD8D
:100490000FC00FB607FCF5CF808185FFF2CFA8898A
:1004A000B9898C9185FFEDCFCE010E94CA01E7CFBB
:1004B000DF91CF91089580E090E0892B29F00E9490
:1004C000C00181110C940000089585ED8093BC005B
:1004D0008091BC0084FDFCCF10920B0308954091E5
:1004E000A002262F30E0240F311D21323105DCF42B
:1004F00020910B032430C9F4FC0180E090E08617C2
:1005000058F43091A0022191DC01A058BD4FA30FF7
:10051000B11D2C930196F3CF8091A002680F6093D8
:10052000A00280E0089581E0089582E00895089592
:1005300008950895E091C4028091C302E81730F451
:10054000F0E0EB53FD4F808190E008958FEF9FEF37
:1005500008959091C4028091C302981750F4E92F36
:10056000F0E0EB53FD4F208130E09F5F9093C40299
:1005700002C02FEF3FEFC90108958091C30290E0C0
:100580002091C402821B91090895CF92DF92EF92CD
:10059000FF920F931F93CF93DF937C01CB018A01CE
:1005A00020910C03222389F0EB016B01C40ED51EB0
:1005B000CC15DD0569F06991D701ED91FC910190B1
:1005C000F081E02DC7010995F3CF642F0E946F02DF
:1005D000C801DF91CF911F910F91FF90EF90DF90B5
:1005E000CF900895CF93DF931F92CDB7DEB7698385
:1005F00020910C032223D1F020912F03203240F0D0
:1006000021E030E0FC013383228380E090E015C0DC
:1006100080910D03E82FF0E0E25FFC4F9981908319
:100620008F5F80930D0380932F0305C061E0CE019F
:1006300001960E946F0281E090E00F90DF91CF91D0
:100640000895089583FF02C098E2892787FD06C0B8
:1006500080649091600090937E0202C080917E023F
:1006600094B7977F94BFF8949091600098619093AD
:100670006000809360007894089580E090E0089591
:100680000E945A181F920F920FB60F9211242F93A7
:100690003F934F935F936F937F938F939F93AF930A
:1006A000BF93EF93FF93E0910201F091030109954D
:1006B000FF91EF91BF91AF919F918F917F916F913A
:1006C0005F914F913F912F910F900FBE0F901F9010
:1006D00018951F920F920FB60F9211242F933F93EC
:1006E0004F935F936F937F938F939F93AF93BF933A
:1006F000EF93FF93E0910001F09101010995FF91C3
:10070000EF91BF91AF919F918F917F916F915F9189
:100710004F913F912F910F900FBE0F901F90189502
:100720001F920F920FB60F9211242F933F934F9366
:100730005F936F937F938F939F93AF93BF93EF9349
:10074000FF9380E393E00E94CA01FF91EF91BF9174
:10075000AF919F918F917F916F915F914F913F9159
:100760002F910F900FBE0F901F9018951F920F9210
:100770000FB60F9211242F938F939F93EF93FF93B4
:10078000E0914003F09141038081E0914603F091B4
:10079000470382FD12C09081809149038F5F8F7360
:1007A00020914A03821751F0E0914903F0E0E05DA7
:1007B000FC4F958F8093490301C08081FF91EF9199
:1007C0009F918F912F910F900FBE0F901F901895B2
:1007D0001F920F920FB60F9211242F933F934F93B6
:1007E0005F936F937F938F939F93AF93BF93EF9399
:1007F000FF938091B900887F803609F49CC068F52A
:10080000883209F45BC090F4803109F454C038F4A4
:10081000882309F4F6C0883009F44DC0F6C0883149
:1008200009F44CC0803209F45DC0EFC0803409F493
:1008300068C048F4803309F455C0883309F0E5C036
:1008400080930903D8C0803509F44FC0883509F476
:100850005DC0883409F0D9C0D6C0883909F4C7C052
:10086000A8F4883709F467C038F4883609F463C0FF
:10087000803709F460C0C9C0883809F4B8C080392D
:1008800009F45FC0803809F0C0C05BC0803B09F448
:1008900086C038F4803A09F466C0883A09F47FC00B
:1008A000B4C0803C09F4A7C0883C09F4A4C0883BCC
:1008B00009F48AC0AAC08091E60210C09091080392
:1008C00080910703981770F5E091080381E08E0F7F
:1008D00080930803F0E0E951FD4F80818093BB00D5
:1008E00085EC86C0809309038EC0E091080381E007
:1008F0008E0F809308038091BB00F0E0E951FD4F1B
:10090000808390910803809107036EC0E0910803F3
:1009100081E08E0F809308038091BB00F0E0E951E5
:10092000FD4F808380910A0381116DC081E0809327
:10093000E50284EA61C083E080930B031092C20257
:10094000CFCF8091C202803208F051C0E091C20244
:1009500081E08E0F8093C2028091BB00F0E0EE55E3
:10096000FD4F8083BDCF85EC8093BC0010920B03BC
:100970008091C202803230F4E091C202F0E0EE5584
:10098000FD4F10826091C20270E0E0915401F0913D
:10099000550182EA92E009951092C20236C084E0C5
:1009A00080930B031092A1021092A002E0915601D5
:1009B000F091570109958091A002811105C081E055
:1009C0008093A00210928002E091A10281E08E0F3C
:1009D0008093A102F0E0E058FD4F80818093BB003E
:1009E0009091A1028091A002981708F479CF85E830
:1009F0008093BC000AC085EC8093BC0010920B036E
:100A000004C0109209030E946502FF91EF91BF910B
:100A1000AF919F918F917F916F915F914F913F9196
:100A20002F910F900FBE0F901F901895DC0180E062
:100A3000615098F02D91982F9227E92FEF70F0E0F8
:100A4000E152FE4F249192959F70E92FF0E0E15121
:100A5000FE4FE491822F8E27EBCF0895FC01908109
:100A60000180F281E02DF8948181892B818322819C
:100A7000892F809528232283A7E0B0E01197F1F712
:100A8000218182238183A3E2B0E01197F1F7808175
:100A90007894EFECF0E03197F1F7982381E009F4D6
:100AA00080E00895FC0190810180F281E02D892F82
:100AB000809560FF12C0F894228182238283818115
:100AC000892B8183A3E2B0E01197F1F78281982B03
:100AD0009283789487ED90E011C0F894228182236C
:100AE00082838181892B8183AFEFB0E01197F1F789
:100AF0008281982B928378948FE090E00197F1F7B0
:100B00000895DF92EF92FF920F931F93CF93DF939D
:100B1000EC01D62EE42E08E010E0FF24F39461E00F
:100B20008D2D8F2109F460E0CE010E945205FF0C4B
:100B300001501109A1F7E11010C0F894E981FA8180
:100B400091818881809589238183E981FA819281CD
:100B500088818095892382837894DF91CF911F913A
:100B60000F91FF90EF90DF900895EF92FF920F9317
:100B70001F93CF93DF938C017B0140E065E50E94DA
:100B80008105E70188E0E80EF11C699140E0C801A9
:100B90000E948105CE15DF05C1F7DF91CF911F912E
:100BA0000F91FF90EF900895DC012C911196ED913B
:100BB000FC911297F8948181922F909589238183DB
:100BC00078948DE743E050E0815021F1DA011197EC
:100BD000F1F730813223C1F3F89482818923828333
:100BE0008181822B81837894ABE7B7E01197F1F78D
:100BF000F89481819823918383E191E00197F1F743
:100C00008081282381E009F080E07894E3E6F6E033
:100C10003197F1F70895E8982A988EBD0DB407FE34
:100C2000FDCF8EB56EBD0DB407FEFDCF8EB52A9AF1
:100C3000E89A089560E00C940B06CF93C82F81E0EA
:100C40000E941A06837E682F6C2B81E8CF910C944A
:100C50000B0688E20E941A06807521F080E00E944F
:100C60001A06F7CF08958627682F62956827062E03
:100C7000669566956025062E669560256770082E38
:100C8000892F669507946795902D8627069467951A
:100C9000902586270895CF938091A601853009F08D
:100CA00052C060E485EA0E940B0684E20E941A06A4
:100CB0007894C8E488E20E941A068075D9F380917E
:100CC000A50181110FC0E0915801F0915901809167
:100CD000A50191E0980F9093A50190915C01E80F18
:100CE000F11D908380E00E941A06E0915801F09176
:100CF00059019091A50121E0290F2093A501E90F49
:100D0000F11D8083682F80915A0190915B010E94B0
:100D1000330690935B0180935A0180915F01833485
:100D200010F0C093A50180915F012091A50190E092
:100D3000049630E082179307ACF08091A5018834C7
:100D400008F4B8CF0FC088E20E941A0683FF0AC0D9
:100D500084E08093A6010E941D0660E885EACF9199
:100D60000C940B06CF910895CF92DF92EF92FF92F1
:100D70001F93CF93DF936C01EC0138E0E32EF12C4D
:100D8000C031D10508F43FC0CE0110E0803291059A
:100D900030F01F5F193019F096958795F7CF1092B4
:100DA0007F02812F0E94220390917A0080917A0025
:100DB0008F7780937A0083B7817F846083BFF894B4
:100DC00083B7816083BF85B7806685BF85B78F791C
:100DD000806485BF7894889583B78E7F83BF909316
:100DE0007A008FEF0E942203C70102C0880F991F6B
:100DF0001A95E2F7C81BD90B20917F02222329F014
:100E0000C81BD90BBDCF81E001C080E04091FC033D
:100E10005091FD036091FE037091FF03CC1ADD0A2F
:100E20004C0D5D1D611D711D4093FC035093FD032E
:100E30006093FE037093FF03DF91CF911F91FF90AA
:100E4000EF90DF90CF900895BF92CF92DF92EF9214
:100E5000FF920F931F93CF93DF932AE7E22EF12C9B
:100E6000F701B0800BE710E0F801C080CCE7D0E0DC
:100E7000D8800E94B406F701B082F801C082D882FF
:100E8000DF91CF911F910F91FF90EF90DF90CF9066
:100E9000BF900895EF92FF920F931F93CF93DF932C
:100EA00000D000D0CDB7DEB704E610E0F8018081B5
:100EB0008F77808385EE8C8361E070E0CE010496AD
:100EC0000E94BD0862E070E0CE0101960E945708C2
:100ED000E980FA80FE24EF24FE2480EE8B8361E01B
:100EE00070E0CE0103960E94BD0862E070E0CE0182
:100EF00001960E94570829813A81322723273227F9
:100F0000F801808180688083A4EAB4E40E947815A7
:100F10008D5492419093AA018093A9019701A4ED69
:100F2000B0E30E947815885592409093A801809371
:100F3000A7010F900F900F900F90DF91CF911F910D
:100F40000F91FF90EF90089585E10E940B0C24EE25
:100F50003CE0DC010E9439182FEF33E040E050E024
:100F60000E943715CA01B9010E94A3169B01AC016A
:100F70000E9488150E946B167093AC016093AB01C0
:100F800008951F920F920FB60F9211248F938091A4
:100F90007F028F5F80937F028F910F900FBE0F9023
:100FA0001F901895833081F028F4813099F08230B9
:100FB000A1F008958730A9F08830B9F08430D1F4D9
:100FC000809180008F7D03C0809180008F77809317
:100FD0008000089584B58F7702C084B58F7D84BD6D
:100FE00008958091B0008F7703C08091B0008F7D0D
:100FF0008093B0000895282F30912F03313208F0EC
:101000004AC080910B038111FCCF90912E0342E0E6
:1010100040930B0320930A032FEF209309031092B0
:10102000080330930703EEE0F3E0A7EEB2E020E020
:10103000321721F041914D932F5FFACF1092E602C3
:101040002091E602990F922B9093E6029091E5028F
:10105000913061F41092E5029091E6029093BB000A
:101060009091BC0093FDF8CF95EC01C095EE909364
:10107000BC0090910B039230E1F3909109039F3FE4
:1010800079F080910903803241F080910903803327
:1010900031F084E005C081E003C082E001C083E05C
:1010A00010920D0310922F0310920C030895EF92EB
:1010B000FF920F931F93CF93DF937C018B0180915D
:1010C0000B038111FCCF802F013208F080E291E008
:1010D00090930B0390930A032FEF20930903109230
:1010E0000803280F209307039093E6029091E602ED
:1010F00090689093E6029091E502913061F410922D
:10110000E5029091E6029093BB009091BC0093FDA4
:10111000F8CF95EC01C095EE9093BC0090910B0335
:101120009130E1F390910803981710F4809108032F
:10113000E7EEF2E0A5ECB2E090E0981721F0219103
:101140002D939F5FFACF1092C4029093C302E701E0
:10115000CE018E199F098017910734F48DEC93E02E
:101160000E94A9028993F4CF81E090E0DF91CF91B2
:101170001F910F91FF90EF900895EF92FF920F93C0
:101180001F93CF93DF938C017B0181E080930C034D
:1011900080E480932E0310920D0310922F03C0E081
:1011A000D0E0CE15DF0554F40C0F1D1FF80160814F
:1011B0008DEC93E00E94F2022196F3CF81E0DF9163
:1011C000CF911F910F91FF90EF900C94FB078F929E
:1011D0009F92AF92BF92CF92DF92EF92FF920F93C6
:1011E0001F93CF93DF938C01EB018091E0039091EB
:1011F000E1030E94D405882309F43DC0B801809121
:10120000E0039091E1030E94B50540E06EEB809110
:10121000E0039091E1030E9481058E015E0189E067
:10122000A80EB11C8090E0039090E10388E0C82EE6
:10123000D12CF12CEE24E394C4010E942E058111DF
:10124000FE28EE0CE1E0CE1AD108B1F7F801F192D8
:101250008F01EA15FB0531F78091E0039091E103DE
:101260000E94D405813039F468E0CE010E94160551
:1012700091E02885281390E0892FDF91CF911F916D
:101280000F91FF90EF90DF90CF90BF90AF909F9025
:101290008F900895CF93DF93CDB7DEB729970FB620
:1012A000F894DEBF0FBECDBFFC0120812031D1F00C
:1012B000BE016F5F7F4F0E94E708882389F08D8110
:1012C0008F3361F020F48F3159F489E00CC08F35F1
:1012D00019F08F3739F004C08BE005C08AE003C0F5
:1012E00080E001C08CE029960FB6F894DEBF0FBEF7
:1012F000CDBFDF91CF910895BF92CF92DF92EF9251
:10130000FF920F931F93CF93DF93EC016B018D85B9
:10131000811105C0CE010E94D405811105C01B8634
:101320001D861C8680E060C040E060EFCE010E9418
:10133000810501E0E12CB12C11E0CE010E942E05C7
:10134000F82ECE010E942E0591E0F91203C08130E3
:10135000B1F434C02E2D30E0F8121BC08B85181765
:1013600038F4FE01E20FF31F8381802341F402C0B1
:10137000811729F0F12C193058F41C8709C0FE019F
:10138000EE0DF11D8381802B8383FF24F39409C02C
:10139000B12EFE01E20FF31F9381802F80958923E8
:1013A00083836F2DCE010E9452051F5F000F11F441
:1013B000E39401E087E08E1508F0BFCF113408F404
:1013C000AECFBB86B11002C081E08D878B818823B0
:1013D00009F4A5CFDE011396F6012B968D9181932A
:1013E000CA17DB07D9F781E0DF91CF911F910F91E9
:1013F000FF90EF90DF90CF90BF900895009769F035
:10140000FC0101900020E9F73197AF01481B590B0F
:10141000BC0180E393E00C94590180E090E00895D2
:101420008F929F92AF92BF920F931F93CF93DF93B0
:10143000CDB7DEB7A1970FB6F894DEBF0FBECDBF14
:1014400019A2423008F44AE08E010F5D1F4F842E2E
:10145000912CA12CB12CA50194010E945615E62FC8
:10146000B901CA0101501109EA3014F4E05D01C06C
:10147000E95CD801EC93232B242B252B61F7C801C1
:101480000E94FE09A1960FB6F894DEBF0FBECDBF35
:10149000DF91CF911F910F91BF90AF909F908F9050
:1014A00008950F931F93CF93DF938C01C0E0D0E09A
:1014B000F801EC0FFD1F6491662341F080E393E097
:1014C0000E94EC01892B11F02196F2CFCE01DF9121
:1014D000CF911F910F910895CF93DF930E94510AEE
:1014E000EC0189E391E00E94FE098C0F9D1FDF91C2
:1014F000CF910895CF92DF92EF92FF92CF93DF9337
:101500006C01990FEE08FF08F7FE13C06DE280E34F
:1015100093E00E94EC01EC0166277727CB016C1960
:101520007D098E099F094AE00E94100AC80FD91F41
:1015300006C04AE0C701B6010E94100AEC0189E327
:1015400091E00E94FE098C0F9D1FDF91CF91FF90CB
:10155000EF90DF90CF9008954F925F926F927F92BD
:101560008F929F92AF92BF92CF92DF92EF92FF92B3
:101570006B017C019B01AC010E940B18882319F0C0
:1015800087E491E01AC046015701E894B7F82FEFBD
:101590003FEF4FE75FE7C501B4010E940B188111CF
:1015A00010C02FEF3FEF4FE75FE7C501B4010E9486
:1015B000F415181634F48BE491E00E94FE097C01C6
:1015C00083C02FEF3FEF4FE75FE4C701B6010E94F2
:1015D000531718161CF48FE491E0EFCF2FEF3FEF75
:1015E0004FE75FECC701B6010E94F41587FDF3CF0A
:1015F00020E030E0A901C701B6010E94F41587FF81
:101600000BC06DE280E393E00E94EC015C01F7FA0D
:10161000F094F7F8F09402C0A12CB12C2AE037ED39
:1016200043EA5BE3C701B6010E9488152B013C0128
:101630000E9472166B017C010E94A1169B01AC01F5
:10164000C301B2010E9487152B013C014AE0C7018A
:10165000B6010E94100A7C01EA0CFB1C6EE280E3DA
:1016600093E00E94EC01E80EF91E20E030E040E239
:1016700051E4C301B2010E9458172B013C010E94A2
:1016800072164B01A12CB12C4AE0C501B4010E9495
:10169000100AE80EF91EC501B4010E94A1169B01B3
:1016A000AC01C301B2010E94871520E030E040E2A6
:1016B00051E40E9458170E94721680E090E04AE0C0
:1016C0000E94100AE80EF91E89E391E00E94FE09CB
:1016D0008E0D9F1DFF90EF90DF90CF90BF90AF9049
:1016E0009F908F907F906F905F904F900895CF93D1
:1016F000DF93282F30E0F901ED5EFD4F8491F90171
:10170000EB5BFD4FD491F901EF5CFD4FC491CC230D
:1017100091F081110E94D207EC2FF0E0EE0FFF1F35
:10172000E95DFD4FA591B491EC91ED2381E090E04E
:1017300021F480E002C080E090E0DF91CF91089535
:101740001F93CF93DF93282F30E0F901ED5EFD4F1B
:101750008491F901EB5BFD4FD491F901EF5CFD4FF2
:10176000C491CC23C1F0162F81110E94D207EC2F17
:10177000F0E0EE0FFF1FE75FFD4FA591B4919FB71B
:10178000F894111104C08C91D095D82302C0EC912B
:10179000DE2BDC939FBFDF91CF911F910895CF93F4
:1017A000DF9390E0FC01EB5BFD4F2491FC01EF5CCB
:1017B000FD4F8491882361F190E0880F991FFC010F
:1017C000E150FE4FC591D491FC01E75FFD4FA5911B
:1017D000B491611109C09FB7F89488812095822344
:1017E0008883EC912E230BC0623061F49FB7F8948C
:1017F0008881322F309583238883EC912E2B2C9374
:101800009FBF06C08FB7F894E8812E2B28838FBF27
:10181000DF91CF9108958E3008F08E50209108010D
:1018200090E4299F900111248770822B80937C0083
:1018300080917A00806480937A0080917A0086FD9E
:10184000FCCF809178002091790090E0922B089550
:101850008F929F92AF92BF92CF92DF92EF92FF92C0
:101860006B017C010E94620C4B015C01C114D1042C
:10187000E104F104F1F00E94620CDC01CB01881953
:101880009909AA09BB09883E9340A105B10570F3E7
:1018900021E0C21AD108E108F10888EE880E83E041
:1018A000981EA11CB11CC114D104E104F10419F764
:1018B000DDCFFF90EF90DF90CF90BF90AF909F90E3
:1018C0008F9008953FB7F89480910104909102049D
:1018D000A0910304B091040426B5A89B05C02F3F36
:1018E00019F00196A11DB11D3FBFBA2FA92F982F46
:1018F0008827820F911DA11DB11DBC01CD0142E0C1
:10190000660F771F881F991F4A95D1F708951F9278
:101910000F920FB60F9211242F933F938F939F93A3
:10192000AF93BF938091FC039091FD03A091FE03C0
:10193000B091FF033091000423E0230F2D3720F4F2
:101940000196A11DB11D05C026E8230F0296A11D19
:10195000B11D209300048093FC039093FD03A0939A
:10196000FE03B093FF038091010490910204A091C3
:101970000304B09104040196A11DB11D80930104DC
:1019800090930204A0930304B0930404BF91AF9119
:101990009F918F913F912F910F900FBE0F901F90AD
:1019A0001895CF93DF93CDB7DEB761970FB6F89454
:1019B000DEBF0FBECDBF789484B5826084BD84B590
:1019C000816084BD85B5826085BD85B5816085BD3A
:1019D00080916E00816080936E00109281008091F2
:1019E000810082608093810080918100816080937A
:1019F0008100809180008160809380008091B1009F
:101A000084608093B1008091B00081608093B000C9
:101A100080917A00846080937A0080917A0082605D
:101A200080937A0080917A00816080937A0080911F
:101A30007A00806880937A001092C10064E670E0BA
:101A400080E090E00E94280C61E086E00E94CF0BCD
:101A500061E086E00E94A00BE0914003F091410319
:101A600082E08083E0913C03F0913D031082E0919D
:101A70003E03F0913F0383E3808310924803E0919B
:101A80004403F091450386E08083E0914203F091A6
:101A90004303808180618083E0914203F09143039E
:101AA000808188608083E0914203F09143038081CC
:101AB00080688083E0914203F091430380818F7DB1
:101AC000808360E085E10E94CF0B81E08093080174
:101AD00085E10E940B0C85E10E940B0C21E0181699
:101AE00019060CF020E020932E0260E08FE00E94A7
:101AF000CF0B8FE00E940B0C21E0181619060CF09A
:101B000020E0209323028FE090E09093D80180930F
:101B1000D7018DEC9CECA5EBB2E48093DD019093B2
:101B2000DE01A093DF01B093E00180E090E0A0E04F
:101B3000B4E48093F9019093FA01A093FB01B09370
:101B4000FC0161E081E10E94CF0B60E081E10E9435
:101B5000A00B61E081E10E94A00B82E390E00E9473
:101B60002407E091E003F091E103138615861486C3
:101B7000DF011B9633961E92AE17BF07E1F7109256
:101B8000DE031092DF0311E0BE016F5F7F4F809193
:101B9000E0039091E1030E947C09882309F45CC072
:101BA00067E0CE0101960E94160598858913ECCF57
:101BB0008091DA03811127C08091E0039091E103C5
:101BC0000E94D405BE016F5F7F4F8091E00390912A
:101BD000E1030E94B50540E064EB8091E003909141
:101BE000E1030E9481058091E0039091E1030E944E
:101BF0002E05082F8091E0039091E1030E94D40507
:101C0000002309F4F3C50091DB03CE0101960E9485
:101C10004A09801718F48091DB0304C0CE010196B5
:101C20000E944A098093DB038091DE038F5F8093DB
:101C3000DE038981883209F4DCC538F4803109F487
:101C4000D8C5823209F0A0CFD4C58B3309F4D1C5F1
:101C5000823409F099CFCDC51092DC038091DE0368
:101C600090E09093B5018093B401892B51F081E00D
:101C700080931F0269EB71E08EEE93E00E947C0975
:101C800006C08AED9DEF90931E0280931D0260E0D6
:101C900081E10E94A00B809164008F7780936400A3
:101CA00082E10E94770B019731F083E10E94770B6C
:101CB000019709F070C01092C4021092C3021092F2
:101CC0000D0310922F0310920B0311E010930A03DF
:101CD0001092E50261E082E10E94A00B61E083E1E5
:101CE0000E94A00B8091B9008E7F8093B9008091F3
:101CF000B9008D7F8093B90088E48093B80085E4B3
:101D00008093BC0087E992E090935701809356013D
:101D100088E992E0909355018093540110930C034D
:101D200080E480932E0310920D0310922F0381E024
:101D30000E94FB07811102C01093B10162E070E0C4
:101D400086E091E00E94BD0868E070E0CE01019657
:101D50000E94570862E070E084E091E00E94BD08B4
:101D600066E070E0CE0101960E945708898190E0FC
:101D70009093B3018093B201809164008068809356
:101D800064008091B2019091B3018D30910531F0E2
:101D90004497029718F01092200203C081E08093CC
:101DA00020026AE070E080E090E00E94280C80E071
:101DB00090E8ACE6B0E08093AD019093AE01A093C3
:101DC000AF01B093B00182ED80935C0185E1809317
:101DD000B60164E170E080E090E00E94280C8BE4A2
:101DE00096E09093010180930001809169008360E7
:101DF00080936900E89A2A9A229A2A9A84B18C627E
:101E000084B980E58CBD8DB581608DBD6AEA8FEAAD
:101E10000E940B068FE20E941A068A3AB9F765E51E
:101E20008FEA0E940B068FE20E941A068535B9F7E9
:101E300008E610E0F8018491882341F0319664911E
:101E400080680E940B060E5F1F4FF4CF60915C010B
:101E500081EB0E940B06C090AD01D090AE01E090E6
:101E6000AF01F090B001B7018827992787E80E9459
:101E70000B0699278F2D7E2D6D2D88E80E940B066D
:101E80006C2D89E80E940B0684E08093A60160E037
:101E900086E00E94A00B81ED91E00E94510A83E34D
:101EA00091E00E94FE0989E391E00E94FE0987EA21
:101EB00091E00E946C0A8BE991E00E946C0A60ED4F
:101EC00077E080E090E00E94280C80912E02882329
:101ED00089F088E891E00E946C0A0E94A4078EE7CE
:101EE00091E00E94510A8091AB019091AC010E9457
:101EF0007A0A04C083E691E00E946C0A8FE491E0C4
:101F00000E94510A80912302882319F087E491E00E
:101F100002C08EE391E00E946C0A84E391E00E948B
:101F2000510A6091B4017091B50180E090E04AE0FF
:101F30000E94100A81E191E00E946C0A8CE391E01A
:101F40000E94FE0909EB11E0C801895B91400897E6
:101F500074F485E491E00E94FE09F80161918F011B
:101F600070E080E090E040E10E94100AEDCF89E34C
:101F700091E00E94FE09809120028823C9F18AEF36
:101F800090E00E94510A8091B2019091B3010E94A9
:101F90007A0A0E944A078FEE90E00E94510A6091EF
:101FA000A9017091AA01072E000C880B990B0E94C1
:101FB000A31620E030E048EC52E40E94F9150E949C
:101FC000AC0A84EE90E00E94510A6091A7017091E2
:101FD000A801072E000C880B990B0E94A31620E085
:101FE00030E048EC52E40E94F9150E94AC0A0AC0A5
:101FF00089EC90E00E94510A8091B2019091B30166
:102000000E947A0A60ED77E080E090E00E94280C60
:1020100087EB90E00E946C0A8EEA90E00E94510AE1
:102020004AE065E170E080E090E00E94100A89E3F8
:1020300091E00E94FE0989E990E00E946C0A8DE817
:1020400090E00E94510A4AE062ED70E080E090E08A
:102050000E94100A89E391E00E94FE0964E170E0A9
:1020600080E090E00E94280C80ED92E0A0E0B0E0DB
:1020700080932F0290933002A0933102B0933202EA
:1020800062E085E00E94CF0B62E087E00E94CF0B08
:1020900062E088E00E94CF0B62E089E00E94CF0BF3
:1020A00062E08EE00E94CF0B62E084E10E94CF0BE1
:1020B00062E083E00E94CF0B62E084E00E94CF0BDD
:1020C00080B7806880BF80916400806880936400DE
:1020D00080916400886080936400FDE52F2EF1E01C
:1020E0003F2E80E590E00E94B406882399F080910D
:1020F0002F0290913002A0913102B09132020196EC
:10210000A11DB11D80932F0290933002A093310244
:10211000B093320280912F0290913002A09131024F
:10212000B0913202CC97A105B10508F45CC380914F
:102130002E02882319F00E94A40704C01092AC015B
:102140001092AB018091AB019091AC01909325026C
:102150008093240280912302882309F4CFC08EE467
:1021600080937C0062E070E080E090E00E94280CA8
:1021700080917A00806480937A0080917A0086FD55
:10218000FCCF809178002091790030E0322F222717
:10219000A901330F660B770B9A01AB01282B60E086
:1021A00070E381E190E00E94371569017A010EE742
:1021B00016E08091D7010E940B0C9093E801809368
:1021C000E701BC01990F880B990B0E94A3164B01E4
:1021D0005C014090F9015090FA016090FB01709011
:1021E000FC01A30192010E94871520E030E040E845
:1021F0005AE30E945817A30192010E9488159B017F
:10220000AC016093F9017093FA018093FB01909304
:10221000FC01C501B4010E9487156093F101709320
:10222000F2018093F3019093F4019B01AC010E94B1
:1022300058176093090270930A0280930B029093DF
:102240000C0220910D0230910E0240910F0250912C
:1022500010020E94881560930D0270930E02809305
:102260000F02909310020150110909F0A2CF20E053
:1022700030EC4FEC54E40E94F9150E94CB174B014F
:102280005C01B601DD0C880B990B0E94A31620E0BF
:1022900030E04AE754E40E94F91520E030E040E8DD
:1022A0005AE30E9458172091DD013091DE014091E0
:1022B000DF015091E0010E945817A50194010E948E
:1022C00058176093D1017093D2018093D3019093FA
:1022D000D40110920D0210920E0210920F02109271
:1022E000100220E030E046E653E40E9458170E94B6
:1022F0006B16709322026093210204C01092220296
:102300001092210280912102909122029093270243
:102310008093260280912002882371F10E944A074F
:102320006091A9017091AA01072E000C880B990BEE
:102330000E94A3162DEC3CEC4CEC5DE30E94581778
:102340000E946B1670932902609328026091A70186
:102350007091A801072E000C880B990B0E94A31600
:102360002DEC3CEC4CEC5DE30E9458170E946B1680
:1023700070932B0260932A0280911F02882309F434
:1023800096C161E081E10E94A00B82E390E00E948F
:10239000240789EB91E00E944A098C3009F49FC020
:1023A000BE016F5F7F4F89EB91E00E94E7088823B1
:1023B00009F495C08091B901803109F490C08FE78C
:1023C0008D838091E0039091E1030E94D40569EB35
:1023D00071E08091E0039091E1030E94B50540E037
:1023E0006EE48091E0039091E1030E94810540E05A
:1023F0006B818091E0039091E1030E94810540E0B0
:102400006C818091E0039091E1030E9481058091AD
:10241000B901803141F040E06D818091E0039091FD
:10242000E1030E9481058091E0039091E1030E9405
:10243000D40569EB71E08091E0039091E1030E9483
:10244000B5054091DA0368E48091E0039091E103DF
:102450000E94810564E170E080E090E00E94280C19
:102460008091DA03882331F06AE070E080E090E048
:102470000E94280C8091E0039091E1030E94D40512
:102480008091DB038D3020F48CE08093DB0327C048
:102490008CE08093DB0300E010E08091DE0390E0AD
:1024A00008171907E4F4E02EE091E003F091E1034E
:1024B000138615861486DF011B9633961E92EA1743
:1024C000FB07E1F7F12CBE01665F7F4F8091E003CF
:1024D0009091E1030E947C09811191C19AC1809180
:1024E000E0039091E1030E94D40540E06CEC809100
:1024F000E0039091E1030E9481054091DA0364E4D6
:102500008091E0039091E1030E9481058091DC03BA
:10251000882309F449C0E091DB03E950E33040F43B
:10252000F0E0EE0FFF1FE75FFE4F6081718102C098
:102530006EEE72E08091DD03882381F18091DA03F1
:1025400081112CC08FB7F8948090FC039090FD030C
:10255000A090FE03B090FF038FBF6B01770FEE08D2
:10256000FF088091E0039091E1030E942E058130E5
:10257000D9F02FB7F8948091FC039091FD03A091BE
:10258000FE03B091FF032FBF8C199D09AE09BF094F
:1025900088159905AA05BB0520F306C0072E000C77
:1025A000880B990B0E94280C8EEE92E00E94240763
:1025B000BE016F5F7F4F89EB91E00E94E70888239F
:1025C00069F12A8130E0C901982F8827990F990F66
:1025D000990F6981F8E06F9FB00111249C01262BAF
:1025E000372B8091B9018031E1F4688570E08F81EB
:1025F000AB01481B5109CA019695982F88279795DA
:1026000087950E94251860517109207F53E0220FA1
:10261000331F5A95E1F7620F731F04C060E874EE30
:1026200001C0B901613854EE75077CF0072E000C2B
:10263000880B990B0E94A31620E030E040E05CE399
:102640000E9458176B017C0106C0C12CD12C9EEF53
:10265000E92E92ECF92E60E081E10E94A00B20E0CF
:1026600030E04AEF52E4C701B6010E945317181632
:1026700054F020E030E04CE552ECC701B6010E9476
:10268000F41587FF06C0C12CD12C8CE5E82E82EC16
:10269000F82E20E030E040E251E4C701B6010E948C
:1026A00058170E946B1670931E0260931D02809152
:1026B0001D0290911E0290932D0280932C02809116
:1026C00064008B7F8093640084E00E941D0684E098
:1026D0008093A6018EE190E00E94240715E004E0BB
:1026E0008091A601853029F48091A501882309F401
:1026F000A8C08091A601843019F0853019F14EC030
:1027000010925F011092A50160915C018FEF9FEF25
:102710000E94330690935B0180935A0130925901D5
:10272000209258011093A6010E94290660E885EACC
:102730000E940B0680E10E941D0662E08EE90E9465
:102740000B062CC080915F012091A50190E00496BA
:1027500030E08217930724F08091A5018834F0F0CF
:102760000093A60184E00E941D0680915F012091E4
:102770005A0130915B01232B09F0E5C0833408F046
:10278000E2C080915E0186FF0CC09091B6019F313E
:1027900041F080915E018F71981719F08FEF9FEFD4
:1027A00002C080E090E09093B8018093B7018091DF
:1027B000B7019091B80194CF80E00E941D0684E09B
:1027C0008093A60184E690E00E9424078091640033
:1027D00084608093640010922F0210923002109255
:1027E0003102109232020E945B027BCC1093DA031A
:1027F0000ACA8091DF038F5F8093DF03C5C9FE1093
:102800001CC067E0CE010A960E94160599898913BB
:1028100014C0F090DB03CE010A960E944A098F157E
:1028200018F48091DB0304C0CE010A960E944A0985
:102830008093DB030F5F1F4F30CEF394EF1448F308
:1028400042CE84E08093A6010E941D068AE0809318
:102850005F01E4E2F2E080E090E0DC01A05ABE4FCC
:1028600021912C9301968A309105B9F78091B60198
:1028700080935E0160915C018FEF9FEF0E943306B1
:1028800090935B0180935A0190915F018EEF891BB9
:102890008093A6010E9429068CE00E941D0660E03C
:1028A00085EA0E940B068091A6018330DCF588E260
:1028B0000E941A0687FDF7CF8091A60187FF1BC0F3
:1028C00090915F018091A601E0915801F09159012A
:1028D000E90FF11DE80FF11D87FDFA951381612FB6
:1028E00080915A0190915B010E94330690935B01A5
:1028F00080935A010DC08091A601882329F0813070
:1029000031F410915B0104C010915A0101C01AEA20
:10291000612F80E80E940B068091A6018F5F809353
:10292000A601C1CF8091A60184300CF045CF83B7BA
:10293000817F846083BF83B7816083BF889583B7BD
:102940008E7F83BFEFCF81E090E02DCF10923303D5
:102950001092320388EE93E0A0E0B0E0809334035D
:1029600090933503A0933603B093370323E131E00E
:10297000309331032093300325EC30E030933D0356
:1029800020933C0324EC30E030933F0320933E033C
:1029900020EC30E0309341032093400321EC30E001
:1029A000309343032093420322EC30E030934503FD
:1029B0002093440326EC30E03093470320934603F2
:1029C0001092490310924A0310924B0310924C0349
:1029D0001092D0031092CF038093D1039093D2032F
:1029E000A093D303B093D40385E291E09093CE03F8
:1029F0008093CD0360E080E10E94CF0BE5E5F2E03B
:102A0000E491E093EE03E1E4F2E0E491F0E0EE0F14
:102A1000FF1FE95DFD4F859194919093F0038093A2
:102A2000EF031092F9031092FB031092FA03E9EFFF
:102A3000F3E0129283E0E13FF807D9F78EEE93E0DE
:102A40009093E1038093E0031092DE031092DF0382
:102A50001092DA0389E08093DB0381E08093DC034A
:102A60008093DD031092ED031092EC030895052E80
:102A700097FB1EF400940E944E1557FD07D00E944C
:102A8000561507FC03D04EF40C944E155095409506
:102A9000309521953F4F4F4F5F4F0895909580950A
:102AA000709561957F4F8F4F9F4F0895A1E21A2E29
:102AB000AA1BBB1BFD010DC0AA1FBB1FEE1FFF1FE2
:102AC000A217B307E407F50720F0A21BB30BE40B32
:102AD000F50B661F771F881F991F1A9469F7609579
:102AE0007095809590959B01AC01BD01CF01089533
:102AF000A29FB001B39FC001A39F700D811D11243F
:102B0000911DB29F700D811D1124911D0895505883
:102B1000BB27AA270E949F150C9419170E940B1718
:102B200038F00E94121720F039F49F3F19F426F470
:102B30000C9408170EF4E095E7FB0C940217E92FAC
:102B40000E942A1758F3BA1762077307840795077C
:102B500020F079F4A6F50C944C170EF4E0950B2EAA
:102B6000BA2FA02D0B01B90190010C01CA01A001DF
:102B70001124FF27591B99F0593F50F4503E68F13A
:102B80001A16F040A22F232F342F4427585FF3CF7B
:102B9000469537952795A795F0405395C9F77EF44C
:102BA0001F16BA0B620B730B840BBAF09150A1F095
:102BB000FF0FBB1F661F771F881FC2F70EC0BA0F1B
:102BC000621F731F841F48F4879577956795B795A3
:102BD000F7959E3F08F0B0CF9395880F08F099279E
:102BE000EE0F9795879508950E94DE1608F481E010
:102BF00008950E940D160C9419170E94121758F090
:102C00000E940B1740F029F45F3F29F00C94021743
:102C100051110C944D170C9408170E942A1768F351
:102C20009923B1F3552391F3951B550BBB27AA2785
:102C300062177307840738F09F5F5F4F220F331FBF
:102C4000441FAA1FA9F335D00E2E3AF0E0E832D087
:102C500091505040E695001CCAF72BD0FE2F29D08A
:102C6000660F771F881FBB1F261737074807AB075C
:102C7000B0E809F0BB0B802DBF01FF2793585F4FD1
:102C80003AF09E3F510578F00C9402170C944D17C2
:102C90005F3FE4F3983ED4F3869577956795B795B3
:102CA000F7959F5FC9F7880F911D9695879597F9BE
:102CB0000895E1E0660F771F881FBB1F6217730737
:102CC0008407BA0720F0621B730B840BBA0BEE1F4C
:102CD00088F7E09508950E9472166894B1110C94DB
:102CE0004D1708950E94321788F09F5798F0B92F1A
:102CF0009927B751B0F0E1F0660F771F881F991F31
:102D00001AF0BA95C9F714C0B13091F00E944C176F
:102D1000B1E008950C944C17672F782F8827B85F7F
:102D200039F0B93FCCF3869577956795B395D9F788
:102D30003EF490958095709561957F4F8F4F9F4F92
:102D40000895E89409C097FB3EF49095809570959E
:102D500061957F4F8F4F9F4F9923A9F0F92F96E9E7
:102D6000BB279395F695879577956795B795F1115C
:102D7000F8CFFAF4BB0F11F460FF1BC06F5F7F4FF9
:102D80008F4F9F4F16C0882311F096E911C077230B
:102D900021F09EE8872F762F05C0662371F096E814
:102DA000862F70E060E02AF09A95660F771F881FE3
:102DB000DAF7880F9695879597F90895990F000887
:102DC000550FAA0BE0E8FEEF16161706E807F907FD
:102DD000C0F012161306E407F50798F0621B730B98
:102DE000840B950B39F40A2661F0232B242B252B19
:102DF00021F408950A2609F4A140A6958FEF811DBC
:102E0000811D089597F99F6780E870E060E008955C
:102E10009FEF80EC089500240A94161617061806F2
:102E20000906089500240A941216130614060506CE
:102E30000895092E0394000C11F4882352F0BB0F5F
:102E400040F4BF2B11F460FF04C06F5F7F4F8F4FC2
:102E50009F4F089557FD9058440F551F59F05F3FFD
:102E600071F04795880F97FB991F61F09F3F79F0AC
:102E700087950895121613061406551FF2CF46952E
:102E8000F1DF08C0161617061806991FF1CF8695B0
:102E90007105610508940895E894BB276627772794
:102EA000CB0197F908950E94DE1608F48FEF08957C
:102EB0000E946B170C9419170E940B1738F00E9490
:102EC000121720F0952311F00C9402170C94081798
:102ED00011240C944D170E942A1770F3959FC1F38B
:102EE000950F50E0551F629FF001729FBB27F00DB8
:102EF000B11D639FAA27F00DB11DAA1F649F66270D
:102F0000B00DA11D661F829F2227B00DA11D621F5B
:102F1000739FB00DA11D621F839FA00D611D221F15
:102F2000749F3327A00D611D231F849F600D211DF9
:102F3000822F762F6A2F11249F5750409AF0F1F07C
:102F400088234AF0EE0FFF1FBB1F661F771F881FE5
:102F500091505040A9F79E3F510580F00C94021704
:102F60000C944D175F3FE4F3983ED4F38695779524
:102F70006795B795F795E7959F5FC1F7FE2B880F8B
:102F8000911D9695879597F9089519F416F40C9468
:102F900008170C9410180E943217B8F39923C9F33C
:102FA000B6F39F57550B87FF0E941E180024A0E61A
:102FB00040EA900180585695979528F4805C660FFA
:102FC000771F881F20F026173707480730F4621B49
:102FD000730B840B202931294A2BA695179407944B
:102FE000202531254A2758F7660F771F881F20F0C4
:102FF00026173707480730F4620B730B840B200D3C
:10300000311D411DA09581F7B901842F9158880F7A
:103010009695879508950E94DE16880B990B089562
:103020009F3F31F0915020F4879577956795B7953C
:10303000880F911D9695879597F908959150504066
:10304000660F771F881FD2F7089597FB072E16F497
:10305000009407D077FD09D00E94401807FC05D0E6
:103060003EF4909581959F4F0895709561957F4F9F
:1030700008950E947815B7FF0895821B930B089559
:10308000AA1BBB1B51E107C0AA1FBB1FA617B7078E
:1030900010F0A61BB70B881F991F5A95A9F78095AA
:1030A0009095BC01CD010895EE0FFF1F0590F4919E
:1030B000E02D099481E090E0F8940C945F18F89466
:0230C000FFCF40
:1030C20058015801FCC9FA0F015E00BC00770100EB
:1030D200000000EC01590183013902B4019201A6FA
:1030E2000100000000F202C5023D039902BD02A9DF
:1030F200029A02312E302E31000D0A0041646472B0
:103102006573733A0020006E616E00696E66006F2F
:0431120076660000DD
:00000001FF
