:100000000C942E010C9469030C9442030C94560139
:100010000C9456010C9456010C94C1070C94560193
:100020000C9456010C9456010C9456010C945601F4
:100030000C9456010C9456010C9456010C945601E4
:100040000C94950C0C9456010C94B6030C949003EC
:100050000C9456010C9456010C9456010C945601C4
:100060000C94E8030C945601010402000302048A74
:10007000050506C30B2019421E2C25802E902FAAA1
:10008000302D370038003C8F3D106F200020204E6F
:100090006574776F726B3A20002020467265717527
:1000A000656E63793A20343333204D487A0020203E
:1000B0004E6F64653A200052464D363943572065ED
:1000C0006E61626C65643A2000496E76616C6964A9
:1000D00020534937303231206465766963652049A1
:1000E000443A200053493730323120683A200053D7
:1000F000493730323120743A200053493730323199
:1001000020666F756E6420776974682049443A20D0
:100110000020445331384232302073656E736F7261
:100120007320286F6E6C7920666972737420757302
:1001300065642900446574656374656420006469BE
:100140007361626C656400656E61626C6564004336
:10015000757272656E74207472616E736475636516
:1001600072200052756E6E696E67206F6E20657822
:100170007465726E616C20737570706C7900426189
:1001800074746572793A200052756E6E696E6720DC
:100190006F6E206261747465727900537461727459
:1001A000696E672E2E2E005365616E204C65617658
:1001B0006579203C656C656374726F6E696373402A
:1001C00061747461636B6C6C616D612E636F6D3E05
:1001D00000546172616E736179204354207600008F
:1001E0005EBCE2613FDD83C29C7E20A3FD1F410017
:1001F0009D23BE46DB65F88C11AF32CA57E9740007
:100200000000002300260029000404040404040460
:1002100004020202020202030303030303010204B5
:100220000810204080010204081020010204081078
:100230002000000000240027002A00000000002504
:100240000028002B00000000080002010000030449
:1002500007000000000000000000E31411241FBE8E
:10026000CFEFD8E0DEBFCDBF11E0A0E0B1E0ECE31E
:10027000F1E302C005900D92AC37B107D9F724E045
:10028000ACE7B1E001C01D92AD32B207E1F711E079
:10029000CEE2D1E004C02197FE010E949118CD3238
:1002A000D107C9F70E94DF0C0C949C180C94000035
:1002B0000895CF92DF92EF92FF920F931F93CF9307
:1002C000DF936C017A018B01C0E0D0E0CE15DF0531
:1002D00081F0D8016D918D01D601ED91FC910190D5
:1002E000F081E02DC6010995892B11F02196EECF02
:1002F0007E01C701DF91CF911F910F91FF90EF9089
:10030000DF90CF900895FC01538D448D252F30E070
:10031000842F90E0821B930B541710F0CF96089512
:1003200001970895FC01918D828D981761F0828D5F
:10033000DF01A80FB11D5D968C91928D9F5F9F7319
:10034000928F90E008958FEF9FEF0895FC01918DBB
:10035000828D981731F0828DE80FF11D858D90E028
:1003600008958FEF9FEF0895FC01918D228D892FC5
:1003700090E0805C9F4F821B91098F7399270895AD
:1003800088E593E00E94B40121E0892B09F420E084
:10039000822F0895FC01848DDF01A80FB11DA35A9F
:1003A000BF4F2C91848D90E001968F739927848F95
:1003B000A689B7892C93A089B1898C9183708064B8
:1003C0008C93938D848D981306C00288F389E02D59
:1003D00080818F7D80830895EF92FF920F931F930A
:1003E000CF93DF93EC0181E0888F9B8D8C8D9813E8
:1003F00005C0E889F989808185FD26C0F62E0B8D20
:1004000010E00F5F1F4F0F731127E02E8C8DE81245
:100410000CC00FB607FCFACFE889F989808185FF07
:10042000F5CFCE010E94CA01F1CF8B8DFE01E80FFE
:10043000F11DE35AFF4FF0829FB7F8940B8FEA89C2
:10044000FB89808180620AC09FB7F894EE89FF899A
:100450006083E889F98980818370806480839FBF8D
:1004600081E090E0DF91CF911F910F91FF90EF908D
:100470000895CF93DF93EC01888D8823C9F0EA8932
:10048000FB89808185FD05C0A889B9898C9186FD8D
:100490000FC00FB607FCF5CF808185FFF2CFA8898A
:1004A000B9898C9185FFEDCFCE010E94CA01E7CFBB
:1004B000DF91CF91089580E090E0892B29F00E9490
:1004C000C00181110C940000089585ED8093BC005B
:1004D0008091BC0084FDFCCF1092330308954091BD
:1004E000C802262F30E0240F311D21323105DCF403
:1004F000209133032430C9F4FC0180E090E086179A
:1005000058F43091C8022191DC01A855BD4FA30FCA
:10051000B11D2C930196F3CF8091C802680F6093B0
:10052000C80280E0089581E0089582E0089508956A
:1005300008950895E091EC028091EB02E81730F401
:10054000F0E0E351FD4F808190E008958FEF9FEF41
:1005500008959091EC028091EB02981750F4E92FE6
:10056000F0E0E351FD4F208130E09F5F9093EC027B
:1005700002C02FEF3FEFC90108958091EB0290E098
:100580002091EC02821B91090895CF92DF92EF92A5
:10059000FF920F931F93CF93DF937C01CB018A01CE
:1005A00020913403222389F0EB016B01C40ED51E88
:1005B000CC15DD0569F06991D701ED91FC910190B1
:1005C000F081E02DC7010995F3CF642F0E946F02DF
:1005D000C801DF91CF911F910F91FF90EF90DF90B5
:1005E000CF900895CF93DF931F92CDB7DEB7698385
:1005F000209134032223D1F020915703203240F080
:1006000021E030E0FC013383228380E090E015C0DC
:1006100080913503E82FF0E0EA5CFC4F99819083EC
:100620008F5F809335038093570305C061E0CE014F
:1006300001960E946F0281E090E00F90DF91CF91D0
:100640000895089583FF02C098E2892787FD06C0B8
:100650008064909160009093A60202C08091A602EF
:1006600094B7977F94BFF8949091600098619093AD
:100670006000809360007894089580E090E0089591
:100680000E9497181F920F920FB60F9211242F936A
:100690003F934F935F936F937F938F939F93AF930A
:1006A000BF93EF93FF93E0910201F091030109954D
:1006B000FF91EF91BF91AF919F918F917F916F913A
:1006C0005F914F913F912F910F900FBE0F901F9010
:1006D00018951F920F920FB60F9211242F933F93EC
:1006E0004F935F936F937F938F939F93AF93BF933A
:1006F000EF93FF93E0910001F09101010995FF91C3
:10070000EF91BF91AF919F918F917F916F915F9189
:100710004F913F912F910F900FBE0F901F90189502
:100720001F920F920FB60F9211242F933F934F9366
:100730005F936F937F938F939F93AF93BF93EF9349
:10074000FF9388E593E00E94CA01FF91EF91BF916A
:10075000AF919F918F917F916F915F914F913F9159
:100760002F910F900FBE0F901F9018951F920F9210
:100770000FB60F9211242F938F939F93EF93FF93B4
:10078000E0916803F09169038081E0916E03F0913C
:100790006F0382FD12C09081809171038F5F8F7310
:1007A00020917203821751F0E0917103F0E0E85A52
:1007B000FC4F958F8093710301C08081FF91EF9171
:1007C0009F918F912F910F900FBE0F901F901895B2
:1007D0001F920F920FB60F9211242F933F934F93B6
:1007E0005F936F937F938F939F93AF93BF93EF9399
:1007F000FF938091B900887F803609F49CC068F52A
:10080000883209F45BC090F4803109F454C038F4A4
:10081000882309F4F6C0883009F44DC0F6C0883149
:1008200009F44CC0803209F45DC0EFC0803409F493
:1008300068C048F4803309F455C0883309F0E5C036
:1008400080933103D8C0803509F44FC0883509F44E
:100850005DC0883409F0D9C0D6C0883909F4C7C052
:10086000A8F4883709F467C038F4883609F463C0FF
:10087000803709F460C0C9C0883809F4B8C080392D
:1008800009F45FC0803809F0C0C05BC0803B09F448
:1008900086C038F4803A09F466C0883A09F47FC00B
:1008A000B4C0803C09F4A7C0883C09F4A4C0883BCC
:1008B00009F48AC0AAC080910E0310C09091300341
:1008C00080912F03981770F5E091300381E08E0F2F
:1008D00080933003F0E0E15FFC4F80818093BB00A8
:1008E00085EC86C0809331038EC0E091300381E0B7
:1008F0008E0F809330038091BB00F0E0E15FFC4FEE
:1009000080839091300380912F036EC0E09130037B
:1009100081E08E0F809330038091BB00F0E0E15FB7
:10092000FC4F80838091320381116DC081E0809300
:100930000D0384EA61C083E0809333031092EA02DE
:10094000CFCF8091EA02803208F051C0E091EA02F4
:1009500081E08E0F8093EA028091BB00F0E0E653C5
:10096000FD4F8083BDCF85EC8093BC001092330394
:100970008091EA02803230F4E091EA02F0E0E6533E
:10098000FD4F10826091EA0270E0E0917C01F091ED
:100990007D018AEC92E009951092EA0236C084E06B
:1009A000809333031092C9021092C802E0917E0135
:1009B000F0917F0109958091C802811105C081E005
:1009C0008093C8021092A802E091C90281E08E0FC4
:1009D0008093C902F0E0E855FD4F80818093BB0011
:1009E0009091C9028091C802981708F479CF85E8E0
:1009F0008093BC000AC085EC8093BC001092330346
:100A000004C0109231030E946502FF91EF91BF91E3
:100A1000AF919F918F917F916F915F914F913F9196
:100A20002F910F900FBE0F901F901895DC0180E062
:100A3000615098F02D91982F9227E92FEF70F0E0F8
:100A4000E152FE4F249192959F70E92FF0E0E15121
:100A5000FE4FE491822F8E27EBCF0895FC01908109
:100A60000180F281E02DF8948181892B818322819C
:100A7000892F809528232283A7E0B0E01197F1F712
:100A8000218182238183A3E2B0E01197F1F7808175
:100A90007894EFECF0E03197F1F7982381E009F4D6
:100AA00080E00895FC0190810180F281E02D892F82
:100AB000809560FF12C0F894228182238283818115
:100AC000892B8183A3E2B0E01197F1F78281982B03
:100AD0009283789487ED90E011C0F894228182236C
:100AE00082838181892B8183AFEFB0E01197F1F789
:100AF0008281982B928378948FE090E00197F1F7B0
:100B00000895DF92EF92FF920F931F93CF93DF939D
:100B1000EC01D62EE42E08E010E0FF24F39461E00F
:100B20008D2D8F2109F460E0CE010E945205FF0C4B
:100B300001501109A1F7E11010C0F894E981FA8180
:100B400091818881809589238183E981FA819281CD
:100B500088818095892382837894DF91CF911F913A
:100B60000F91FF90EF90DF900895EF92FF920F9317
:100B70001F93CF93DF938C017B0140E065E50E94DA
:100B80008105E70188E0E80EF11C699140E0C801A9
:100B90000E948105CE15DF05C1F7DF91CF911F912E
:100BA0000F91FF90EF900895DC012C911196ED913B
:100BB000FC911297F8948181922F909589238183DB
:100BC00078948DE743E050E0815021F1DA011197EC
:100BD000F1F730813223C1F3F89482818923828333
:100BE0008181822B81837894ABE7B7E01197F1F78D
:100BF000F89481819823918383E191E00197F1F743
:100C00008081282381E009F080E07894E3E6F6E033
:100C10003197F1F70895E8982A988EBD0DB407FE34
:100C2000FDCF8EB56EBD0DB407FEFDCF8EB52A9AF1
:100C3000E89A089560E00C940B06CF93C82F81E0EA
:100C40000E941A06837E682F6C2B81E8CF910C944A
:100C50000B0688E20E941A06807521F080E00E944F
:100C60001A06F7CF08958627682F62956827062E03
:100C7000669566956025062E669560256770082E38
:100C8000892F669507946795902D8627069467951A
:100C9000902586270895CF938091CE01853009F065
:100CA00052C060E485EA0E940B0684E20E941A06A4
:100CB0007894C8E488E20E941A068075D9F380917E
:100CC000CD0181110FC0E0918001F09181018091EF
:100CD000CD0191E0980F9093CD0190918401E80FA0
:100CE000F11D908380E00E941A06E0918001F0914E
:100CF00081019091CD0121E0290F2093CD01E90FD1
:100D0000F11D8083682F80918201909183010E9460
:100D1000330690938301809382018091870183340D
:100D200010F0C093CD01809187012091CD0190E01A
:100D3000049630E082179307ACF08091CD0188349F
:100D400008F4B8CF0FC088E20E941A0683FF0AC0D9
:100D500084E08093CE010E941D0660E885EACF9171
:100D60000C940B06CF910895CF92DF92EF92FF92F1
:100D70001F93CF93DF936C01EC0138E0E32EF12C4D
:100D8000C031D10508F43FC0CE0110E0803291059A
:100D900030F01F5F193019F096958795F7CF1092B4
:100DA000A702812F0E94220390917A0080917A00FD
:100DB0008F7780937A0083B7817F846083BFF894B4
:100DC00083B7816083BF85B7806685BF85B78F791C
:100DD000806485BF7894889583B78E7F83BF909316
:100DE0007A008FEF0E942203C70102C0880F991F6B
:100DF0001A95E2F7C81BD90B2091A702222329F0EC
:100E0000C81BD90BBDCF81E001C080E04091240414
:100E1000509125046091260470912704CC1ADD0AB4
:100E20004C0D5D1D611D711D4093240450932504DC
:100E30006093260470932704DF91CF911F91FF9058
:100E4000EF90DF90CF900895BF92CF92DF92EF9214
:100E5000FF920F931F93CF93DF932AE7E22EF12C9B
:100E6000F701B0800BE710E0F801C080CCE7D0E0DC
:100E7000D8800E94B406F701B082F801C082D882FF
:100E8000DF91CF911F910F91FF90EF90DF90CF9066
:100E9000BF900895EF92FF920F931F93CF93DF932C
:100EA00000D000D0CDB7DEB704E610E0F8018081B5
:100EB0008F77808385EE8C8361E070E0CE010496AD
:100EC0000E94940862E070E0CE0101960E942E0814
:100ED000E980FA80FE24EF24FE2480EE8B8361E01B
:100EE00070E0CE0103960E94940862E070E0CE01AB
:100EF00001960E942E0829813A8132272327322722
:100F0000F801808180688083A4EAB4E40E94B5156A
:100F10008D5492419093D2018093D1019701A4ED19
:100F2000B0E30E94B515885592409093D00180930C
:100F3000CF010F900F900F900F90DF91CF911F91E5
:100F40000F91FF90EF90089585E10E943E0C24EEF2
:100F50003CE0DC010E9476182FEF33E040E050E0E7
:100F60000E947415CA01B9010E94E0169B01AC01F0
:100F70000E94C5150E94A8167093D4016093D301F6
:100F800008951F920F920FB60F9211248F938091A4
:100F9000A7028F5F8093A7028F910F900FBE0F90D3
:100FA0001F901895282F30915703313208F04AC00E
:100FB000809133038111FCCF9091560342E040931E
:100FC0003303209332032FEF209331031092300329
:100FD00030932F03E6E3F3E0AFE0B3E020E0321715
:100FE00021F041914D932F5FFACF10920E03209183
:100FF0000E03990F922B90930E0390910D03913055
:1010000061F410920D0390910E039093BB009091A8
:10101000BC0093FDF8CF95EC01C095EE9093BC0019
:10102000909133039230E1F3909131039F3F79F037
:1010300080913103803241F080913103803331F06F
:1010400084E005C081E003C082E001C083E010922B
:10105000350310925703109234030895EF92FF92D4
:101060000F931F93CF93DF937C018B018091330308
:101070008111FCCF802F013208F080E291E0909343
:101080003303909332032FEF2093310310923003F8
:10109000280F20932F0390930E0390910E039068D6
:1010A00090930E0390910D03913061F410920D0313
:1010B00090910E039093BB009091BC0093FDF8CFEC
:1010C00095EC01C095EE9093BC0090913303913064
:1010D000E1F390913003981710F480913003EFE022
:1010E000F3E0ADEEB2E090E0981721F021912D935E
:1010F0009F5FFACF1092EC029093EB02E701CE01D2
:101100008E199F098017910734F485EF93E00E94B0
:10111000A9028993F4CF81E090E0DF91CF911F91F4
:101120000F91FF90EF900895EF92FF920F931F930E
:10113000CF93DF938C017B0181E08093340380E4C3
:10114000809356031092350310925703C0E0D0E00D
:10115000CE15DF0554F40C0F1D1FF801608185EFDB
:1011600093E00E94F2022196F3CF81E0DF91CF91CC
:101170001F910F91FF90EF900C94D2078F929F9246
:10118000AF92BF92CF92DF92EF92FF920F931F9395
:10119000CF93DF938C01EB018091080490910904B7
:1011A0000E94D405882309F43DC0B8018091080449
:1011B000909109040E94B50540E06EEB809108040F
:1011C000909109040E9481058E015E0189E0A80EBC
:1011D000B11C809008049090090488E0C82ED12C9E
:1011E000F12CEE24E394C4010E942E058111FE2807
:1011F000EE0CE1E0CE1AD108B1F7F801F1928F01BF
:10120000EA15FB0531F780910804909109040E94CA
:10121000D405813039F468E0CE010E94160591E0D2
:101220002885281390E0892FDF91CF911F910F918E
:10123000FF90EF90DF90CF90BF90AF909F908F90F6
:101240000895CF93DF93CDB7DEB729970FB6F89403
:10125000DEBF0FBECDBFFC0120812031D1F0BE0129
:101260006F5F7F4F0E94BE08882389F08D818F3386
:1012700061F020F48F3159F489E00CC08F3519F0FA
:101280008F3739F004C08BE005C08AE003C080E0EE
:1012900001C08CE029960FB6F894DEBF0FBECDBF1B
:1012A000DF91CF910895BF92CF92DF92EF92FF929C
:1012B0000F931F93CF93DF93EC016B018D85811109
:1012C00005C0CE010E94D405811105C01B861D8674
:1012D0001C8680E060C040E060EFCE010E94810586
:1012E00001E0E12CB12C11E0CE010E942E05F82E78
:1012F000CE010E942E0591E0F91203C08130B1F4B5
:1013000034C02E2D30E0F8121BC08B85181738F42E
:10131000FE01E20FF31F8381802341F402C0811795
:1013200029F0F12C193058F41C8709C0FE01EE0D8C
:10133000F11D8381802B8383FF24F39409C0B12E98
:10134000FE01E20FF31F9381802F80958923838311
:101350006F2DCE010E9452051F5F000F11F4E39420
:1013600001E087E08E1508F0BFCF113408F4AECF4E
:10137000BB86B11002C081E08D878B81882309F480
:10138000A5CFDE011396F6012B968D918193CA1796
:10139000DB07D9F781E0DF91CF911F910F91FF908B
:1013A000EF90DF90CF90BF900895009769F0FC0117
:1013B00001900020E9F73197AF01481B590BBC01A0
:1013C00088E593E00C94590180E090E00895CF9374
:1013D000DF930E94D509EC0182E491E00E94D509D7
:1013E0008C0F9D1FDF91CF9108958F929F92AF92A6
:1013F000BF920F931F93CF93DF93CDB7DEB7A19723
:101400000FB6F894DEBF0FBECDBF19A2423008F46C
:101410004AE08E010F5D1F4F842E912CA12CB12C20
:10142000A50194010E949315E62FB901CA0101504C
:101430001109EA3014F4E05D01C0E95CD801EC93D5
:10144000232B242B252B61F7C8010E94D509A196D7
:101450000FB6F894DEBF0FBECDBFDF91CF911F91C5
:101460000F91BF90AF909F908F900895CF92DF9291
:10147000EF92FF92CF93DF936C01990FEE08FF0874
:10148000F7FE13C06DE288E593E00E94EC01EC01E9
:1014900066277727CB016C197D098E099F094AE0E1
:1014A0000E94F509C80FD91F06C04AE0C701B6015E
:1014B0000E94F509EC0182E491E00E94D5098C0FAD
:1014C0009D1FDF91CF91FF90EF90DF90CF90089517
:1014D0000F931F93CF93DF938C01C0E0D0E0F8010E
:1014E000EC0FFD1F6491662341F088E593E00E94B4
:1014F000EC01892B11F02196F2CFCE01DF91CF9133
:101500001F910F910895CF93DF930E94680AEC0119
:1015100082E491E00E94D5098C0F9D1FDF91CF914D
:101520000895833081F028F4813099F08230A1F061
:1015300008958730A9F08830B9F08430D1F48091D3
:1015400080008F7D03C0809180008F778093800022
:10155000089584B58F7702C084B58F7D84BD0895CA
:101560008091B0008F7703C08091B0008F7D809311
:10157000B00008953FB7F8948091290490912A040F
:10158000A0912B04B0912C0426B5A89B05C02F3F39
:1015900019F00196A11DB11D3FBFBA2FA92F982F99
:1015A0008827820F911DA11DB11DBC01CD0142E014
:1015B000660F771F881F991F4A95D1F708954F929C
:1015C0005F926F927F928F929F92AF92BF92CF92D3
:1015D000DF92EF92FF926B017C019B01AC010E94B4
:1015E0004818882319F080E791E01AC04601570196
:1015F000E894B7F82FEF3FEF4FE75FE7C501B4017D
:101600000E944818811110C02FEF3FEF4FE75FE7AE
:10161000C501B4010E943116181634F484E791E034
:101620000E94D5097C0183C02FEF3FEF4FE75FE4B5
:10163000C701B6010E94901718161CF488E791E0C4
:10164000EFCF2FEF3FEF4FE75FECC701B6010E94EE
:10165000311687FDF3CF20E030E0A901C701B601C4
:101660000E94311687FF0BC06DE288E593E00E946F
:10167000EC015C01F7FAF094F7F8F09402C0A12CA9
:10168000B12C2AE037ED43EA5BE3C701B6010E94C3
:10169000C5152B013C010E94AF166B017C010E9415
:1016A000DE169B01AC01C301B2010E94C4152B01DF
:1016B0003C014AE0C701B6010E94F5097C01EA0C31
:1016C000FB1C6EE288E593E00E94EC01E80EF91E37
:1016D00020E030E040E251E4C301B2010E949517DE
:1016E0002B013C010E94AF164B01A12CB12C4AE00A
:1016F000C501B4010E94F509E80EF91EC501B40147
:101700000E94DE169B01AC01C301B2010E94C41508
:1017100020E030E040E251E40E9495170E94AF16AD
:1017200080E090E04AE00E94F509E80EF91E82E4AC
:1017300091E00E94D5098E0D9F1DFF90EF90DF90E4
:10174000CF90BF90AF909F908F907F906F905F9061
:101750004F900895CF93DF93282F30E0F901EB5B92
:10176000FD4F8491F901E35EFD4FD491F901E75FEC
:10177000FD4FC491CC2391F081110E94910AEC2F6E
:10178000F0E0EE0FFF1FE150FE4FA591B491EC91F8
:10179000ED2381E090E021F480E002C080E090E061
:1017A000DF91CF9108951F93CF93DF93282F30E0DF
:1017B000F901EB5BFD4F8491F901E35EFD4FD4919C
:1017C000F901E75FFD4FC491CC23C1F0162F8111C1
:1017D0000E94910AEC2FF0E0EE0FFF1FE55CFD4F39
:1017E000A591B4919FB7F894111104C08C91D09534
:1017F000D82302C0EC91DE2BDC939FBFDF91CF9109
:101800001F910895CF93DF9390E0FC01E35EFD4FBD
:101810002491FC01E75FFD4F8491882361F190E002
:10182000880F991FFC01EF5CFD4FC591D491FC011D
:10183000E55CFD4FA591B491611109C09FB7F89483
:101840008881209582238883EC912E230BC06230FF
:1018500061F49FB7F8948881322F30958323888371
:10186000EC912E2B2C939FBF06C08FB7F894E88184
:101870002E2B28838FBFDF91CF9108958E3008F0F3
:101880008E502091080190E4299F900111248770C7
:10189000822B80937C0080917A00806480937A0010
:1018A00080917A0086FDFCCF8091780020917900AC
:1018B00090E0922B08958F929F92AF92BF92CF9219
:1018C000DF92EF92FF926B017C010E94BA0A4B01FA
:1018D0005C01C114D104E104F104F1F00E94BA0AE0
:1018E000DC01CB0188199909AA09BB09883E9340FC
:1018F000A105B10570F321E0C21AD108E108F10891
:1019000088EE880E83E0981EA11CB11CC114D1047E
:10191000E104F10419F7DDCFFF90EF90DF90CF9055
:10192000BF90AF909F908F9008951F920F920FB627
:101930000F9211242F933F938F939F93AF93BF9355
:101940008091240490912504A0912604B09127044D
:101950003091280423E0230F2D3720F40196A11D98
:10196000B11D05C026E8230F0296A11DB11D2093CD
:1019700028048093240490932504A0932604B09314
:1019800027048091290490912A04A0912B04B091FE
:101990002C040196A11DB11D8093290490932A0463
:1019A000A0932B04B0932C04BF91AF919F918F9182
:1019B0003F912F910F900FBE0F901F901895CF93CE
:1019C000DF93CDB7DEB761970FB6F894DEBF0FBED9
:1019D000CDBF789484B5826084BD84B5816084BDB8
:1019E00085B5826085BD85B5816085BD80916E00BD
:1019F000816080936E0010928100809181008260EE
:101A0000809381008091810081608093810080912A
:101A100080008160809380008091B1008460809319
:101A2000B1008091B00081608093B00080917A0015
:101A3000846080937A0080917A00826080937A003B
:101A400080917A00816080937A0080917A0080682A
:101A500080937A001092C10064E670E080E090E02C
:101A60000E945B0C61E086E00E94020C61E086E06F
:101A70000E94D30BE0916803F091690382E08083B8
:101A8000E0916403F09165031082E0916603F091A8
:101A9000670383E3808310927003E0916C03F091FD
:101AA0006D0386E08083E0916A03F0916B0380818F
:101AB00080618083E0916A03F0916B03808188608C
:101AC0008083E0916A03F0916B038081806880835A
:101AD000E0916A03F0916B0380818F7D808360E0E9
:101AE00085E10E94020C81E08093080185E10E945B
:101AF0003E0C85E10E943E0C21E0181619060CF000
:101B000020E02093560260E08FE00E94020C8FE0FC
:101B10000E943E0C21E0181619060CF020E02093DC
:101B20004B028FE090E0909300028093FF018DECD8
:101B30009CECA5EBB2E48093050290930602A0937F
:101B40000702B093080280E090E0A0E0B4E4809344
:101B5000210290932202A0932302B093240261E019
:101B600081E10E94020C60E081E10E94D30B61E000
:101B700081E10E94D30B82E390E00E942407E09170
:101B80000804F0910904138615861486DF011B965C
:101B900033961E92AE17BF07E1F71092060410921B
:101BA000070411E0BE016F5F7F4F809108049091A0
:101BB00009040E945309882309F45CC067E0CE0140
:101BC00001960E94160598858913ECCF8091020436
:101BD000811127C080910804909109040E94D405C6
:101BE000BE016F5F7F4F80910804909109040E94AD
:101BF000B50540E064EB80910804909109040E94CF
:101C0000810580910804909109040E942E05082FF7
:101C100080910804909109040E94D405002309F4DE
:101C200022C600910304CE0101960E94210980176B
:101C300018F48091030404C0CE0101960E9421098A
:101C400080930304809106048F5F8093060489814A
:101C5000883209F40BC638F4803109F407C68232A1
:101C600009F0A0CF03C68B3309F400C6823409F013
:101C700099CFFCC5109204048091060490E09093E3
:101C8000DD018093DC01892B51F081E080934702D4
:101C900061EE71E086E194E00E94530906C08AED8E
:101CA0009DEF909346028093450260E081E10E949F
:101CB000D30B809164008F778093640082E10E944F
:101CC000AA0B019731F083E10E94AA0B019709F05A
:101CD00070C01092EC021092EB0210923503109239
:101CE00057031092330311E01093320310920D0347
:101CF00061E082E10E94D30B61E083E10E94D30B9B
:101D00008091B9008E7F8093B9008091B9008D7F5A
:101D10008093B90088E48093B80085E48093BC0088
:101D200087E992E090937F0180937E0188E992E0B9
:101D300090937D0180937C011093340380E4809321
:101D40005603109235031092570381E00E94D20788
:101D5000811102C01093D90162E070E086E091E049
:101D60000E94940868E070E0CE0101960E942E085F
:101D700062E070E084E091E00E94940866E070E028
:101D8000CE0101960E942E08898190E09093DB019C
:101D90008093DA0180916400806880936400809170
:101DA000DA019091DB018D30910531F04497029773
:101DB00018F01092480203C081E0809348026AE064
:101DC00070E080E090E00E945B0C80E090E8ACE680
:101DD000B0E08093D5019093D601A093D701B09342
:101DE000D80182ED8093840185E18093DE0164E176
:101DF00070E080E090E00E945B0C8BE496E09093B2
:101E000001018093000180916900836080936900E3
:101E1000E89A2A9A229A2A9A84B18C6284B980E537
:101E20008CBD8DB581608DBD6AEA8FEA0E940B067C
:101E30008FE20E941A068A3AB9F765E58FEA0E9496
:101E40000B068FE20E941A068535B9F708E610E006
:101E5000F8018491882341F03196649180680E9452
:101E60000B060E5F1F4FF4CF6091840181EB0E943F
:101E70000B06C090D501D090D601E090D701F0902C
:101E8000D801B7018827992787E80E940B06992770
:101E90008F2D7E2D6D2D88E80E940B066C2D89E814
:101EA0000E940B0684E08093CE0160E086E00E94F1
:101EB000D30B81ED91E00E94680A83E391E00E94D8
:101EC000E70987EA91E00E94830A8BE991E00E948A
:101ED000830A60ED77E080E090E00E945B0C8091E7
:101EE0005602882389F088E891E00E94830A0E94C4
:101EF000A4078EE791E00E94680A8091D301909137
:101F0000D4010E94360A04C083E691E00E94830A4D
:101F10008FE491E00E94680A80914B02882319F0B7
:101F200087E491E002C08EE391E00E94830A84E39B
:101F300091E00E94680A6091DC017091DD0180E00F
:101F400090E04AE00E94F50981E191E00E94830A55
:101F500089E391E00E94D50901EE11E0C801815E9C
:101F60009140089774F483E591E00E94D509F80147
:101F700061918F0170E080E090E040E10E94F509FE
:101F8000EDCF82E491E00E94D50980914802882338
:101F9000C9F18AEF90E00E94680A8091DA0190917D
:101FA000DB010E94360A0E944A078FEE90E00E94F1
:101FB000680A6091D1017091D201072E000C880B44
:101FC000990B0E94E01620E030E048EC52E40E94B9
:101FD00036160E94DF0A84EE90E00E94680A609143
:101FE000CF017091D001072E000C880B990B0E9435
:101FF000E01620E030E048EC52E40E9436160E94E1
:10200000DF0A0AC089EC90E00E94680A8091DA0138
:102010009091DB010E94360A60ED77E080E090E06D
:102020000E945B0C87EB90E00E94830A8EEA90E0AE
:102030000E94680A4AE065E170E080E090E00E945A
:10204000F50982E491E00E94D50989E990E00E94B7
:10205000830A8DE890E00E94680A4AE062ED70E031
:1020600080E090E00E94F50982E491E00E94D509A9
:1020700064E170E080E090E00E945B0C80ED92E013
:10208000A0E0B0E08093570290935802A0935902C9
:10209000B0935A0262E085E00E94020C62E087E0A1
:1020A0000E94020C62E088E00E94020C62E089E07B
:1020B0000E94020C62E08EE00E94020C62E084E169
:1020C0000E94020C62E083E00E94020C62E084E065
:1020D0000E94020C80B7806880BF80916400806895
:1020E0008093640080916400886080936400F5E8C8
:1020F0002F2EF1E03F2E80E590E00E94B406882369
:1021000099F08091570290915802A0915902B09194
:102110005A020196A11DB11D809357029093580257
:10212000A0935902B0935A0280915702909158029D
:10213000A0915902B0915A0283379105A105B105CA
:1021400008F48EC380915602882319F00E94A407D8
:1021500004C01092D4011092D3018091D3019091C8
:10216000D40190934D0280934C0280914B028823BE
:1021700009F4CFC08EE480937C0062E070E080E0E0
:1021800090E00E945B0C80917A00806480937A00DA
:1021900080917A0086FDFCCF8091780020917900B3
:1021A00030E0322F2227A901330F660B770B9A01FB
:1021B000AB01282B60E070E381E190E00E94741590
:1021C00069017A010EE716E08091FF010E943E0C42
:1021D0009093100280930F02BC01990F880B990B0A
:1021E0000E94E0164B015C014090210250902202B7
:1021F0006090230270902402A30192010E94C415F2
:1022000020E030E040E85AE30E949517A3019201D4
:102210000E94C5159B01AC016093210270932202BC
:102220008093230290932402C501B4010E94C41537
:102230006093190270931A0280931B0290931C0200
:102240009B01AC010E94951760933102709332029A
:1022500080933302909334022091350230913602FC
:1022600040913702509138020E94C51560933502A3
:10227000709336028093370290933802015011090F
:1022800009F0A2CF20E030EC4FEC54E40E94361667
:102290000E9408184B015C01B601DD0C880B990BFC
:1022A0000E94E01620E030E04AE754E40E9436162F
:1022B00020E030E040E85AE30E94951720910502A3
:1022C0003091060240910702509108020E94951732
:1022D000A50194010E9495176093F9017093FA018A
:1022E0008093FB019093FC0110923502109236020C
:1022F000109237021092380220E030E046E653E4B4
:102300000E9495170E94A81670934A026093490292
:1023100004C010924A0210924902809149029091A1
:102320004A0290934F0280934E0280914802882384
:1023300071F10E944A076091D1017091D201072E7C
:10234000000C880B990B0E94E0162DEC3CEC4CEC39
:102350005DE30E9495170E94A81670935102609346
:1023600050026091CF017091D001072E000C880BB4
:10237000990B0E94E0162DEC3CEC4CEC5DE30E94C6
:1023800095170E94A8167093530260935202809191
:102390004702882309F496C161E081E10E94D30BD2
:1023A00082E390E00E94240781EE91E00E942109DF
:1023B0008C3009F49FC0BE016F5F7F4F81EE91E0CA
:1023C0000E94BE08882309F495C08091E101803104
:1023D00009F490C08FE78D838091080490910904DF
:1023E0000E94D40561EE71E0809108049091090487
:1023F0000E94B50540E06EE48091080490910904C4
:102400000E94810540E06B8180910804909109044D
:102410000E94810540E06C8180910804909109043C
:102420000E9481058091E101803141F040E06D81A1
:1024300080910804909109040E948105809108040C
:10244000909109040E94D40561EE71E08091080426
:10245000909109040E94B5054091020468E48091BE
:102460000804909109040E94810564E170E080E015
:1024700090E00E945B0C80910204882331F06AE0B6
:1024800070E080E090E00E945B0C809108049091E5
:1024900009040E94D405809103048D3020F48CE05F
:1024A0008093030427C08CE08093030400E010E0D5
:1024B0008091060490E008171907E4F4E02EE091FB
:1024C0000804F0910904138615861486DF011B9613
:1024D00033961E92EA17FB07E1F7F12CBE01665F07
:1024E0007F4F80910804909109040E945309811143
:1024F000C3C1CCC180910804909109040E94D40505
:1025000040E06CEC80910804909109040E948105E0
:102510004091020464E480910804909109040E94AF
:10252000810580910404882309F449C0E0910304E3
:10253000E950E33040F4F0E0EE0FFF1FE75FFE4F9D
:102540006081718102C06EEE72E080910504882383
:1025500081F18091020481112CC08FB7F894809092
:10256000240490902504A0902604B09027048FBFE7
:102570006B01770FEE08FF08809108049091090421
:102580000E942E058130D9F02FB7F8948091240451
:1025900090912504A0912604B09127042FBF8C1997
:1025A0009D09AE09BF0988159905AA05BB0520F349
:1025B00006C0072E000C880B990B0E945B0C8EEE58
:1025C00092E00E942407BE016F5F7F4F81EE91E091
:1025D0000E94BE08882369F12A8130E0C901982F42
:1025E0008827990F990F990F6981F8E06F9FB001C3
:1025F00011249C01262B372B8091E1018031E1F4DD
:10260000688570E08F81AB01481B5109CA0196951E
:10261000982F8827979587950E94621860517109B5
:10262000207F53E0220F331F5A95E1F7620F731F8B
:1026300004C060E874EE01C0B901613854EE75075A
:102640007CF0072E000C880B990B0E94E01620E00E
:1026500030E040E05CE30E9495176B017C0106C00E
:10266000C12CD12C9EEFE92E92ECF92E60E081E195
:102670000E94D30B20E030E04AEF52E4C701B601DC
:102680000E949017181654F020E030E04CE552EC10
:10269000C701B6010E94311687FF06C0C12CD12C9C
:1026A0008CE5E82E82ECF82E20E030E040E251E4A8
:1026B000C701B6010E9495170E94A81670934602A2
:1026C0006093450280914502909146029093550295
:1026D0008093540285E491E00E94E70980914E02C4
:1026E00090914F020E94360A8DE491E00E94E70922
:1026F00080915202909153020E94360A85E591E042
:102700000E94E70980915002909151020E94360A7E
:102710008DE591E00E94E709809154029091550265
:102720000E94360A85E691E00E94E70980914C02FA
:1027300090914D020E94360A809164008B7F8093B5
:10274000640084E00E941D0684E08093CE018EE147
:1027500090E00E94240715E004E08091CE018530CE
:1027600029F48091CD01882309F4A8C08091CE017D
:10277000843019F0853019F14EC010928701109203
:10278000CD01609184018FEF9FEF0E9433069093FB
:102790008301809382013092810120928001109305
:1027A000CE010E94290660E885EA0E940B0680E1BE
:1027B0000E941D0662E08EE90E940B062CC08091EB
:1027C00087012091CD0190E0049630E082179307B5
:1027D00024F08091CD018834F0F00093CE0184E0A4
:1027E0000E941D0680918701209182013091830112
:1027F000232B09F0E5C0833408F0E2C08091860104
:1028000086FF0CC09091DE019F3141F080918601DE
:102810008F71981719F08FEF9FEF02C080E090E062
:102820009093E0018093DF018091DF019091E001BE
:1028300094CF80E00E941D0684E08093CE0184E660
:1028400090E00E942407809164008460809364007B
:1028500010925702109258021092590210925A0286
:102860000E945B0248CC10930204DBC980910704EC
:102870008F5F8093070496C9FE101CC067E0CE01ED
:102880000A960E9416059989891314C0F0900304D2
:10289000CE010A960E9421098F1518F48091030435
:1028A00004C0CE010A960E942109809303040F5FA1
:1028B0001F4FFECDF394EF1448F310CE84E08093C5
:1028C000CE010E941D068AE080938701ECE4F2E0CD
:1028D00080E090E0DC01A857BE4F21912C93019637
:1028E0008A309105B9F78091DE018093860160916D
:1028F00084018FEF9FEF0E943306909383018093B2
:102900008201909187018EEF891B8093CE010E94F6
:1029100029068CE00E941D0660E085EA0E940B06F5
:102920008091CE018330DCF588E20E941A0687FD93
:10293000F7CF8091CE0187FF1BC0909187018091D6
:10294000CE01E0918001F0918101E90FF11DE80FC6
:10295000F11D87FDFA951381612F8091820190917D
:1029600083010E94330690938301809382010DC0FE
:102970008091CE01882329F0813031F410918301B8
:1029800004C01091820101C01AEA612F80E80E9400
:102990000B068091CE018F5F8093CE01C1CF8091D5
:1029A000CE0184300CF045CF83B7817F846083BF34
:1029B00083B7816083BF889583B78E7F83BFEFCF56
:1029C00081E090E02DCF10925B0310925A0388EEC5
:1029D00093E0A0E0B0E080935C0390935D03A0934C
:1029E0005E03B0935F0323E131E0309359032093FA
:1029F000580325EC30E0309365032093640324EC06
:102A000030E0309367032093660320EC30E030938E
:102A100069032093680321EC30E030936B0320932B
:102A20006A0322EC30E030936D0320936C0326ECB4
:102A300030E030936F0320936E0310927103109275
:102A4000720310927303109274031092F8031092A1
:102A5000F7038093F9039093FA03A093FB03B093D9
:102A6000FC0385E291E09093F6038093F50360E028
:102A700080E10E94020CEDE2F2E0E491E0931604A2
:102A8000E9E1F2E0E491F0E0EE0FFF1FE150FE4FCC
:102A900085919491909318048093170410922104C7
:102AA0001092230410922204E1E2F4E0129284E0F6
:102AB000E931F807D9F786E194E09093090480930F
:102AC000080410920604109207041092020489E090
:102AD0008093030481E080930404809305041092A2
:102AE0001504109214040895052E97FB1EF400940B
:102AF0000E948B1557FD07D00E94931507FC03D049
:102B00004EF40C948B1550954095309521953F4F80
:102B10004F4F5F4F089590958095709561957F4FC9
:102B20008F4F9F4F0895A1E21A2EAA1BBB1BFD01D8
:102B30000DC0AA1FBB1FEE1FFF1FA217B307E4079C
:102B4000F50720F0A21BB30BE40BF50B661F771FF4
:102B5000881F991F1A9469F76095709580959095D4
:102B60009B01AC01BD01CF010895A29FB001B39FAD
:102B7000C001A39F700D811D1124911DB29F700D86
:102B8000811D1124911D08955058BB27AA270E942A
:102B9000DC150C9456170E94481738F00E944F1706
:102BA00020F039F49F3F19F426F40C9445170EF4E5
:102BB000E095E7FB0C943F17E92F0E94671758F345
:102BC000BA17620773078407950720F079F4A6F512
:102BD0000C9489170EF4E0950B2EBA2FA02D0B0143
:102BE000B90190010C01CA01A0011124FF27591B52
:102BF00099F0593F50F4503E68F11A16F040A22F58
:102C0000232F342F4427585FF3CF469537952795C8
:102C1000A795F0405395C9F77EF41F16BA0B620BC7
:102C2000730B840BBAF09150A1F0FF0FBB1F661F0E
:102C3000771F881FC2F70EC0BA0F621F731F841F51
:102C400048F4879577956795B795F7959E3F08F077
:102C5000B0CF9395880F08F09927EE0F9795879539
:102C600008950E941B1708F481E008950E944A16F7
:102C70000C9456170E944F1758F00E94481740F0C6
:102C800029F45F3F29F00C943F1751110C948A17D7
:102C90000C9445170E94671768F39923B1F35523E5
:102CA00091F3951B550BBB27AA276217730784075F
:102CB00038F09F5F5F4F220F331F441FAA1FA9F3F5
:102CC00035D00E2E3AF0E0E832D091505040E695E3
:102CD000001CCAF72BD0FE2F29D0660F771F881F44
:102CE000BB1F261737074807AB07B0E809F0BB0B37
:102CF000802DBF01FF2793585F4F3AF09E3F51054B
:102D000078F00C943F170C948A175F3FE4F3983ED9
:102D1000D4F3869577956795B795F7959F5FC9F733
:102D2000880F911D9695879597F90895E1E0660FB4
:102D3000771F881FBB1F621773078407BA0720F02D
:102D4000621B730B840BBA0BEE1F88F7E095089596
:102D50000E94AF166894B1110C948A1708950E94CE
:102D60006F1788F09F5798F0B92F9927B751B0F097
:102D7000E1F0660F771F881F991F1AF0BA95C9F7FF
:102D800014C0B13091F00E948917B1E008950C94FD
:102D90008917672F782F8827B85F39F0B93FCCF3B0
:102DA000869577956795B395D9F73EF4909580957C
:102DB000709561957F4F8F4F9F4F0895E89409C09C
:102DC00097FB3EF490958095709561957F4F8F4F5E
:102DD0009F4F9923A9F0F92F96E9BB279395F69574
:102DE000879577956795B795F111F8CFFAF4BB0FF2
:102DF00011F460FF1BC06F5F7F4F8F4F9F4F16C056
:102E0000882311F096E911C0772321F09EE8872FDF
:102E1000762F05C0662371F096E8862F70E060E09B
:102E20002AF09A95660F771F881FDAF7880F969514
:102E3000879597F90895990F0008550FAA0BE0E8B8
:102E4000FEEF16161706E807F907C0F0121613066C
:102E5000E407F50798F0621B730B840B950B39F4AC
:102E60000A2661F0232B242B252B21F408950A2612
:102E700009F4A140A6958FEF811D811D089597F952
:102E80009F6780E870E060E008959FEF80EC089510
:102E900000240A9416161706180609060895002439
:102EA0000A9412161306140605060895092E0394B3
:102EB000000C11F4882352F0BB0F40F4BF2B11F427
:102EC00060FF04C06F5F7F4F8F4F9F4F089557FD86
:102ED0009058440F551F59F05F3F71F04795880F88
:102EE00097FB991F61F09F3F79F08795089512161F
:102EF00013061406551FF2CF4695F1DF08C01616CB
:102F000017061806991FF1CF86957105610508947B
:102F10000895E894BB2766277727CB0197F9089592
:102F20000E941B1708F48FEF08950E94A8170C94B5
:102F300056170E94481738F00E944F1720F095232B
:102F400011F00C943F170C94451711240C948A1718
:102F50000E94671770F3959FC1F3950F50E0551FBE
:102F6000629FF001729FBB27F00DB11D639FAA27DE
:102F7000F00DB11DAA1F649F6627B00DA11D661F2D
:102F8000829F2227B00DA11D621F739FB00DA11D4E
:102F9000621F839FA00D611D221F749F3327A00D08
:102FA000611D231F849F600D211D822F762F6A2FA4
:102FB00011249F5750409AF0F1F088234AF0EE0F09
:102FC000FF1FBB1F661F771F881F91505040A9F736
:102FD0009E3F510580F00C943F170C948A175F3F79
:102FE000E4F3983ED4F3869577956795B795F79572
:102FF000E7959F5FC1F7FE2B880F911D96958795EA
:1030000097F9089519F416F40C9445170C944D187B
:103010000E946F17B8F39923C9F3B6F39F57550B66
:1030200087FF0E945B180024A0E640EA90018058C8
:103030005695979528F4805C660F771F881F20F0BF
:1030400026173707480730F4621B730B840B2029BF
:1030500031294A2BA69517940794202531254A2714
:1030600058F7660F771F881F20F026173707480785
:1030700030F4620B730B840B200D311D411DA095A4
:1030800081F7B901842F9158880F969587950895F7
:103090000E941B17880B990B08959F3F31F09150A8
:1030A00020F4879577956795B795880F911D96952C
:1030B000879597F9089591505040660F771F881FA4
:1030C000D2F7089597FB072E16F4009407D077FDEA
:1030D00009D00E947D1807FC05D03EF4909581959B
:1030E0009F4F0895709561957F4F08950E94B51583
:1030F000B7FF0895821B930B0895AA1BBB1B51E1D8
:1031000007C0AA1FBB1FA617B70710F0A61BB70B57
:10311000881F991F5A95A9F780959095BC01CD01FC
:103120000895EE0FFF1F0590F491E02D099481E0C2
:0C31300090E0F8940C949C18F894FFCFE9
:10313C0058015801FCC9FA0F015E00BC0077010070
:10314C00000000EC01590183013902B4019201A67F
:10315C000100000000F202C5023D039902BD02A964
:10316C00029A02312E302E31004164647265737301
:10317C003A000D0A00506F7765723A2000496E7460
:10318C0020483A2000496E7420543A200045787447
:10319C0020543A2000537570706C7920563A2000F8
:0C31AC006E616E00696E66006F76660052
:00000001FF
