:100000000C9413010C944E030C9427030C943B01A5
:100010000C943B010C943B010C9410080C943B0194
:100020000C943B010C943B010C943B010C943B0160
:100030000C943B010C943B010C943B010C943B0150
:100040000C94520D0C943B010C949B030C9475037F
:100050000C943B010C943B010C943B010C943B0130
:100060000C94CD030C943B0120204E6574776F7285
:100070006B3A200020204672657175656E63793A8F
:1000800020343333204D487A0020204E6F64653A87
:10009000200052464D3639435720656E61626C65CB
:1000A000643A2000496E76616C69642053493730A8
:1000B0003231206465766963652049443A200053F3
:1000C000493730323120683A2000534937303231D5
:1000D00020743A200053493730323120666F756EF4
:1000E0006420776974682049443A200020445331E1
:1000F000384232302073656E736F727320286F6ED2
:100100006C79206669727374207573656429004484
:100110006574656374656420005374617274696EFC
:10012000672E2E2E005365616E204C6561766579D1
:10013000203C656C656374726F6E696373406174B3
:100140007461636B6C6C616D612E636F6D3E005406
:100150006172616E73617920426173652076002956
:100160000028002000200020004F4B0020282D30C8
:10017000290020004F4B2000526573657474696E2E
:100180006720524600005EBCE2613FDD83C29C7E78
:1001900020A3FD1F41009D23BE46DB65F88C11AFF7
:1001A00032CA57E97400000000240027002A00002A
:1001B000000000250028002B0000000008000201BC
:1001C000000003040700000000000000000104021A
:1001D000000302048A050506C30B2019421E2C25C4
:1001E000802E902FAA302D370038003C8F3D106FA5
:1001F000200000000000230026002900040404045D
:1002000004040404020202020202030303030303C0
:10021000010204081020408001020408102001029D
:1002200004081020331411241FBECFEFD8E0DEBF26
:10023000CDBF11E0A0E0B1E0EAEDFEE202C0059022
:100240000D92A834B107D9F723E0A8E4B1E001C0CA
:100250001D92A53EB207E1F711E0C3E1D1E004C071
:100260002197FE010E946017C231D107C9F70E9491
:100270009C0D0C946B170C9400000895CF92DF92A4
:10028000EF92FF920F931F93CF93DF936C017A014C
:100290008B01C0E0D0E0CE15DF0581F0D8016D9173
:1002A0008D01D601ED91FC910190F081E02DC60108
:1002B0000995892B11F02196EECF7E01C701DF91C0
:1002C000CF911F910F91FF90EF90DF90CF90089505
:1002D000FC01538D448D252F30E0842F90E0821B4C
:1002E000930B541710F0CF96089501970895FC01D1
:1002F000918D828D981761F0828DDF01A80FB11D5D
:100300005D968C91928D9F5F9F73928F90E0089580
:100310008FEF9FEF0895FC01918D828D981731F03A
:10032000828DE80FF11D858D90E008958FEF9FEF8E
:100330000895FC01918D228D892F90E0805C9F4F64
:10034000821B91098F73992708958CE093E00E9496
:10035000990121E0892B09F420E0822F0895FC0106
:10036000848DDF01A80FB11DA35ABF4F2C91848D3E
:1003700090E001968F739927848FA689B7892C9373
:10038000A089B1898C91837080648C93938D848DC6
:10039000981306C00288F389E02D80818F7D8083C9
:1003A0000895EF92FF920F931F93CF93DF93EC0189
:1003B00081E0888F9B8D8C8D981305C0E889F98921
:1003C000808185FD26C0F62E0B8D10E00F5F1F4F3C
:1003D0000F731127E02E8C8DE8120CC00FB607FCAE
:1003E000FACFE889F989808185FFF5CFCE010E9497
:1003F000AF01F1CF8B8DFE01E80FF11DE35AFF4FE6
:10040000F0829FB7F8940B8FEA89FB898081806224
:100410000AC09FB7F894EE89FF896083E889F9895B
:1004200080818370806480839FBF81E090E0DF9152
:10043000CF911F910F91FF90EF900895CF93DF938D
:10044000EC01888D8823C9F0EA89FB89808185FDCC
:1004500005C0A889B9898C9186FD0FC00FB607FC2D
:10046000F5CF808185FFF2CFA889B9898C9185FF6E
:10047000EDCFCE010E94AF01E7CFDF91CF9108957C
:1004800080E090E0892B29F00E94A50181110C9455
:100490000000089585ED8093BC008091BC0084FD30
:1004A000FCCF1092E702089540917902262F30E0A8
:1004B000240F311D21323105DCF42091E702243074
:1004C000C9F4FC0180E090E0861758F4309179027D
:1004D0002191DC01A75ABD4FA30FB11D2C930196AA
:1004E000F3CF80917902680F6093790280E00895DC
:1004F00081E0089582E00895089508950895E091B7
:10050000A00280919F02E81730F4F0E0EF55FD4F14
:10051000808190E008958FEF9FEF08959091A00261
:1005200080919F02981750F4E92FF0E0EF55FD4FAE
:10053000208130E09F5F9093A00202C02FEF3FEF39
:10054000C901089580919F0290E02091A002821B32
:1005500091090895CF92DF92EF92FF920F931F932C
:10056000CF93DF937C01CB018A012091E802222303
:1005700089F0EB016B01C40ED51ECC15DD0569F0C9
:100580006991D701ED91FC910190F081E02DC701B7
:100590000995F3CF642F0E945402C801DF91CF91D7
:1005A0001F910F91FF90EF90DF90CF900895CF9320
:1005B000DF931F92CDB7DEB769832091E802222333
:1005C000D1F020910B03203240F021E030E0FC011B
:1005D0003383228380E090E015C08091E902E82F08
:1005E000F0E0E651FD4F998190838F5F8093E9029F
:1005F00080930B0305C061E0CE0101960E94540276
:1006000081E090E00F90DF91CF910895089583FFEE
:1006100002C098E2892787FD06C08064909160003F
:100620009093580202C08091580294B7977F94BF6C
:10063000F8949091600098619093600080936000BE
:100640007894089580E090E008950E9466171F92C4
:100650000F920FB60F9211242F933F934F935F93F6
:100660006F937F938F939F93AF93BF93EF93FF937A
:10067000E0910601F09107010995FF91EF91BF917B
:10068000AF919F918F917F916F915F914F913F912A
:100690002F910F900FBE0F901F9018951F920F92E1
:1006A0000FB60F9211242F933F934F935F936F9345
:1006B0007F938F939F93AF93BF93EF93FF93E091BB
:1006C0000401F09105010995FF91EF91BF91AF9160
:1006D0009F918F917F916F915F914F913F912F915A
:1006E0000F900FBE0F901F9018951F920F920FB68C
:1006F0000F9211242F933F934F935F936F937F93A8
:100700008F939F93AF93BF93EF93FF938CE093E00E
:100710000E94AF01FF91EF91BF91AF919F918F9197
:100720007F916F915F914F913F912F910F900FBEED
:100730000F901F9018951F920F920FB60F921124D1
:100740002F938F939F93EF93FF93E0911C03F0916E
:100750001D038081E0912203F091230382FD12C0EA
:100760009081809125038F5F8F73209126038217DC
:1007700051F0E0912503F0E0E45FFC4F958F80930A
:10078000250301C08081FF91EF919F918F912F915F
:100790000F900FBE0F901F9018951F920F920FB6DB
:1007A0000F9211242F933F934F935F936F937F93F7
:1007B0008F939F93AF93BF93EF93FF938091B90073
:1007C000887F803609F49CC068F5883209F45BC0E4
:1007D00090F4803109F454C038F4882309F4F6C049
:1007E000883009F44DC0F6C0883109F44CC080321D
:1007F00009F45DC0EFC0803409F468C048F4803368
:1008000009F455C0883309F0E5C08093E502D8C0EB
:10081000803509F44FC0883509F45DC0883409F08B
:10082000D9C0D6C0883909F4C7C0A8F4883709F4FC
:1008300067C038F4883609F463C0803709F460C0B3
:10084000C9C0883809F4B8C0803909F45FC080385D
:1008500009F0C0C05BC0803B09F486C038F4803A20
:1008600009F466C0883A09F47FC0B4C0803C09F43A
:10087000A7C0883C09F4A4C0883B09F48AC0AAC078
:100880008091C20210C09091E4028091E302981717
:1008900070F5E091E40281E08E0F8093E402F0E0D5
:1008A000ED53FD4F80818093BB0085EC86C0809323
:1008B000E5028EC0E091E40281E08E0F8093E402B5
:1008C0008091BB00F0E0ED53FD4F80839091E402F6
:1008D0008091E3026EC0E091E40281E08E0F80938C
:1008E000E4028091BB00F0E0ED53FD4F80838091E6
:1008F000E60281116DC081E08093C10284EA61C08B
:1009000083E08093E70210929B02CFCF80919B02FD
:10091000803208F051C0E0919B0281E08E0F8093FD
:100920009B028091BB00F0E0E558FD4F8083BDCF76
:1009300085EC8093BC001092E70280919B0280328C
:1009400030F4E0919B02F0E0E558FD4F1082609199
:100950009B0270E0E0914801F09149018BE792E041
:10096000099510929B0236C084E08093E7021092B2
:100970007A0210927902E0914A01F0914B010995B7
:1009800080917902811105C081E0809379021092F3
:100990005902E0917A0281E08E0F80937A02F0E0B2
:1009A000E75AFD4F80818093BB0090917A0280913D
:1009B0007902981708F479CF85E88093BC000AC0C3
:1009C00085EC8093BC001092E70204C01092E5020F
:1009D0000E944A02FF91EF91BF91AF919F918F9139
:1009E0007F916F915F914F913F912F910F900FBE2B
:1009F0000F901F901895DC0180E0615098F02D91C8
:100A0000982F9227E92FEF70F0E0EB57FE4F2491DB
:100A100092959F70E92FF0E0EB56FE4FE491822F04
:100A20008E27EBCF0895FC0190810180F281E02DAB
:100A3000F8948181892B81832281892F80952823B5
:100A40002283A7E0B0E01197F1F72181822381830F
:100A5000A3E2B0E01197F1F780817894EFECF0E039
:100A60003197F1F7982381E009F480E00895FC01C3
:100A700090810180F281E02D892F809560FF12C066
:100A8000F8942281822382838181892B8183A3E24E
:100A9000B0E01197F1F78281982B9283789487EDDB
:100AA00090E011C0F8942281822382838181892B76
:100AB0008183AFEFB0E01197F1F78281982B928399
:100AC00078948FE090E00197F1F70895DF92EF922C
:100AD000FF920F931F93CF93DF93EC01D62EE42E5A
:100AE00008E010E0FF24F39461E08D2D8F2109F4DC
:100AF00060E0CE010E943705FF0C01501109A1F7FB
:100B0000E11010C0F894E981FA8191818881809583
:100B100089238183E981FA81928188818095892363
:100B200082837894DF91CF911F910F91FF90EF9086
:100B3000DF900895EF92FF920F931F93CF93DF936F
:100B40008C017B0140E065E50E946605E70188E0D5
:100B5000E80EF11C699140E0C8010E946605CE15BF
:100B6000DF05C1F7DF91CF911F910F91FF90EF90BB
:100B70000895DC012C911196ED91FC911297F89457
:100B80008181922F90958923818378948DE743E02A
:100B900050E0815021F1DA011197F1F730813223D1
:100BA000C1F3F8948281892382838181822B81839E
:100BB0007894ABE7B7E01197F1F7F8948181982327
:100BC000918383E191E00197F1F78081282381E00F
:100BD00009F080E07894E3E6F6E03197F1F70895C4
:100BE000E8982A988EBD0DB407FEFDCF8EB56EBD78
:100BF0000DB407FEFDCF8EB52A9AE89A089560E0FD
:100C00000C94F005CF93C82F81E00E94FF05837EEE
:100C1000682F6C2B81E8CF910C94F00588E20E943C
:100C2000FF05807521F080E00E94FF05F7CF089551
:100C30008627682F62956827062E6695669560253B
:100C4000062E669560256770082E892F6695079495
:100C50006795902D86270694679590258627089599
:100C6000CF9380919C02853009F054C060E485EAFE
:100C70000E94F00584E20E94FF0580935001789461
:100C8000C8E488E20E94FF058075D9F3809199013C
:100C900081110FC0E0914C01F0914D0180919901BB
:100CA00091E0980F9093990190919E02E80FF11DA9
:100CB000908380E00E94FF05E0914C01F0914D018E
:100CC0009091990121E0290F20939901E90FF11DDD
:100CD0008083682F80914E0190914F010E941806E9
:100CE00090934F0180934E0180915301833410F013
:100CF000C0939901809153012091990190E004964D
:100D000030E082179307ACF080919901883408F4A1
:100D1000B8CF0FC088E20E94FF0583FF0AC084E0BD
:100D200080939C020E94020660E885EACF910C94B1
:100D3000F005CF910895CF9340935301FB0120E03C
:100D400030E050E02417350744F4D901AC5ABE4FC7
:100D500091919C932F5F3F4FF5CF86FD04C0807E1D
:100D600090919D02890F8093520160919E028FEFB6
:100D70009FEF0E94180690934F0180934E0190912F
:100D800053018EEF891B80939C020E940E068CE01B
:100D90000E94020660E085EA0E94F00580919C02B4
:100DA0008330DCF588E20E94FF0587FDF7CF809154
:100DB0009C0287FF1BC09091530180919C02E0919F
:100DC0004C01F0914D01E90FF11DE80FF11D87FD78
:100DD000FA95C3816C2F80914E0190914F010E9432
:100DE000180690934F0180934E010DC080919C0294
:100DF000882329F0813031F4C0914F0104C0C091A3
:100E00004E0101C0CAEA6C2F80E80E94F005809173
:100E10009C028F5F80939C02C1CFCF910895AF92C7
:100E2000BF92CF92DF92EF92FF920F931F93CF93D7
:100E3000DF936C01A0907A00B0907B0000917C0061
:100E4000EC0138E0E32EF12CC031D10508F43FC0AD
:100E5000CE0110E08032910530F01F5F193019F09B
:100E600096958795F7CF10925702812F0E9407031E
:100E700090917A0080917A008F7780937A0083B77F
:100E8000817F846083BFF89483B7816083BF85B717
:100E9000806685BF85B78F79806485BF7894889593
:100EA00083B78E7F83BF90937A008FEF0E940703F2
:100EB000C70102C0880F991F1A95E2F7C81BD90B0A
:100EC00020915702222319F0C81BD90BBDCF809166
:100ED000DC039091DD03A091DE03B091DF03CC1A17
:100EE000DD0A8C0D9D1DA11DB11D8093DC03909327
:100EF000DD03A093DE03B093DF03A0927A00B092EB
:100F00007B0000937C00DF91CF911F910F91FF90A8
:100F1000EF90DF90CF90BF90AF900895EF92FF9247
:100F20000F931F93CF93DF9300D000D0CDB7DEB7E0
:100F300004E610E0F80180818F77808385EE8C8352
:100F400061E070E0CE0104960E94940A62E070E0D5
:100F5000CE0101960E942E0AE980FA80FE24EF2439
:100F6000FE2480EE8B8361E070E0CE0103960E9448
:100F7000940A62E070E0CE0101960E942E0A298157
:100F80003A81322723273227F801808180688083C5
:100F9000A4EAB4E40E943D178D54924190939D01C0
:100FA00080939C019701A4EDB0E30E943D17885502
:100FB000924090939B0180939A010F900F900F9015
:100FC0000F90DF91CF911F910F91FF90EF900895B7
:100FD000CF92DF92EF92FF920F931F93CF93DF9305
:100FE0008C01C0E0D0E06B01E12CF12CC017D107DF
:100FF00071F061E086E00E94FE0BC701B6010E941D
:10100000690C60E086E00E94FE0B2196EFCFDF9135
:10101000CF911F910F91FF90EF90DF90CF900895A7
:101020001F920F920FB60F9211248F938091570247
:101030008F5F809357028F910F900FBE0F901F907C
:101040001895833081F028F4813099F08230A1F036
:1010500008958730A9F08830B9F08430D1F48091B8
:1010600080008F7D03C0809180008F778093800007
:10107000089584B58F7702C084B58F7D84BD0895AF
:101080008091B0008F7703C08091B0008F7D8093F6
:10109000B0000895009769F0FC0101900020E9F785
:1010A0003197AF01481B590BBC018CE093E00C94C5
:1010B0003E0180E090E0089588E391E00C944A08B6
:1010C0008F929F92AF92BF920F931F93CF93DF9314
:1010D000CDB7DEB7A1970FB6F894DEBF0FBECDBF78
:1010E00019A2423008F44AE08E010F5D1F4F842E92
:1010F000912CA12CB12CA50194010E941B17E62F65
:10110000B901CA0101501109EA3014F4E05D01C0CF
:10111000E95CD801EC93232B242B252B61F7C80124
:101120000E944A08A1960FB6F894DEBF0FBECDBF4D
:10113000DF91CF911F910F91BF90AF909F908F90B3
:101140000895CF92DF92EF92FF92CF93DF936B01DE
:101150007C016DE28CE093E00E94D101EC016627F6
:101160007727CB016C197D098E099F094AE00E94FF
:1011700060088C0F9D1FDF91CF91FF90EF90DF9063
:10118000CF9008950F931F93CF93DF938C01C0E00E
:10119000D0E0F801EC0FFD1F6491662341F08CE074
:1011A00093E00E94D101892B11F02196F2CFCE015C
:1011B000DF91CF911F910F910895CF93DF930E94FC
:1011C000C208EC010E945C088C0F9D1FDF91CF913B
:1011D0000895BC01990F880B990B97FD0C94A108F9
:1011E0004AE00C946008CF93DF93BC01990F880B01
:1011F000990B97FF03C00E94A10803C04AE00E9418
:101200006008EC010E945C088C0F9D1FDF91CF915C
:1012100008954F925F926F927F928F929F92AF92BA
:10122000BF92CF92DF92EF92FF926B017C019B0104
:10123000AC010E940217882319F08BE391E01AC0D9
:1012400046015701E894B7F82FEF3FEF4FE75FE70C
:10125000C501B4010E940217811110C02FEF3FEFAA
:101260004FE75FE7C501B4010E943115181634F449
:101270008FE391E00E944A087C0183C02FEF3FEF8B
:101280004FE75FE4C701B6010E94901618161CF4E0
:1012900083E491E0EFCF2FEF3FEF4FE75FECC70123
:1012A000B6010E94311587FDF3CF20E030E0A9019F
:1012B000C701B6010E94311587FF0BC06DE28CE0BB
:1012C00093E00E94D1015C01F7FAF094F7F8F094F2
:1012D00002C0A12CB12C2AE037ED43EA5BE3C70141
:1012E000B6010E94C5142B013C010E94AF156B0191
:1012F0007C010E94DE159B01AC01C301B2010E947A
:10130000C4142B013C014AE0C701B6010E946008E9
:101310007C01EA0CFB1C6EE28CE093E00E94D101A0
:10132000E80EF91E20E030E040E251E4C301B201D2
:101330000E9495162B013C010E94AF154B01A12C78
:10134000B12C4AE0C501B4010E946008E80EF91E04
:10135000C501B4010E94DE159B01AC01C301B201BD
:101360000E94C41420E030E040E251E40E9495164F
:101370000E94AF1580E090E04AE00E946008E80E0D
:10138000F91E0E945C088E0D9F1DFF90EF90DF906C
:10139000CF90BF90AF909F908F907F906F905F9015
:1013A0004F900895282F30910B03313208F04AC036
:1013B0008091E7028111FCCF90910A0342E04093B3
:1013C000E7022093E6022FEF2093E5021092E40259
:1013D0003093E302EAEEF2E0A3ECB2E020E0321751
:1013E00021F041914D932F5FFACF1092C2022091CC
:1013F000C202990F922B9093C2029091C102913038
:1014000061F41092C1029091C2029093BB0090913E
:10141000BC0093FDF8CF95EC01C095EE9093BC0015
:101420009091E7029230E1F39091E5029F3F79F0CD
:101430008091E502803241F08091E502803331F005
:1014400084E005C081E003C082E001C083E0109227
:10145000E90210920B031092E8020895EF92FF92B6
:101460000F931F93CF93DF937C018B018091E70251
:101470008111FCCF802F013208F080E291E090933F
:10148000E7029093E6022FEF2093E5021092E40228
:10149000280F2093E3029093C2029091C2029068B9
:1014A0009093C2029091C102913061F41092C102F6
:1014B0009091C2029093BB009091BC0093FDF8CF35
:1014C00095EC01C095EE9093BC009091E7029130AD
:1014D000E1F39091E402981710F48091E402E3ECB8
:1014E000F2E0A1EAB2E090E0981721F021912D936B
:1014F0009F5FFACF1092A00290939F02E701CE0166
:101500008E199F098017910734F489EA93E00E94AD
:101510008E028993F4CF81E090E0DF91CF911F910B
:101520000F91FF90EF900895EF92FF920F931F930A
:10153000CF93DF938C017B0181E08093E80280E40C
:1015400080930A031092E90210920B03C0E0D0E0EE
:10155000CE15DF0554F40C0F1D1FF801608189EAD8
:1015600093E00E94D7022196F3CF81E0DF91CF91E3
:101570001F910F91FF90EF900C94D2098F929F9240
:10158000AF92BF92CF92DF92EF92FF920F931F9391
:10159000CF93DF938C01EB018091BC039091BD034D
:1015A0000E94B905882309F43DC0B8018091BC03AD
:1015B0009091BD030E949A0540E06EEB8091BC03C0
:1015C0009091BD030E9466058E015E0189E0A80E20
:1015D000B11C8090BC039090BD0388E0C82ED12C34
:1015E000F12CEE24E394C4010E9413058111FE281E
:1015F000EE0CE1E0CE1AD108B1F7F801F1928F01BB
:10160000EA15FB0531F78091BC039091BD030E9460
:10161000B905813039F468E0CE010E94FB0491E005
:101620002885281390E0892FDF91CF911F910F918A
:10163000FF90EF90DF90CF90BF90AF909F908F90F2
:101640000895CF93DF93CDB7DEB729970FB6F894FF
:10165000DEBF0FBECDBFFC0120812031D1F0BE0125
:101660006F5F7F4F0E94BE0A882389F08D818F3380
:1016700061F020F48F3159F489E00CC08F3519F0F6
:101680008F3739F004C08BE005C08AE003C080E0EA
:1016900001C08CE029960FB6F894DEBF0FBECDBF17
:1016A000DF91CF910895BF92CF92DF92EF92FF9298
:1016B0000F931F93CF93DF93EC016B018D85811105
:1016C00005C0CE010E94B905811105C01B861D868B
:1016D0001C8680E060C040E060EFCE010E9466059D
:1016E00001E0E12CB12C11E0CE010E941305F82E8F
:1016F000CE010E94130591E0F91203C08130B1F4CC
:1017000034C02E2D30E0F8121BC08B85181738F42A
:10171000FE01E20FF31F8381802341F402C0811791
:1017200029F0F12C193058F41C8709C0FE01EE0D88
:10173000F11D8381802B8383FF24F39409C0B12E94
:10174000FE01E20FF31F9381802F8095892383830D
:101750006F2DCE010E9437051F5F000F11F4E39437
:1017600001E087E08E1508F0BFCF113408F4AECF4A
:10177000BB86B11002C081E08D878B81882309F47C
:10178000A5CFDE011396F6012B968D918193CA1792
:10179000DB07D9F781E0DF91CF911F910F91FF9087
:1017A000EF90DF90CF90BF900895CF93DF93282FD5
:1017B00030E0F901E754FE4F8491F901E05FFD4FFD
:1017C000D491F901E450FE4FC491CC2391F08111E2
:1017D0000E942108EC2FF0E0EE0FFF1FEE50FE4FAD
:1017E000A591B491EC91ED2381E090E021F480E0AB
:1017F00002C080E090E0DF91CF9108951F93CF93D6
:10180000DF93282F30E0F901E754FE4F8491F9016E
:10181000E05FFD4FD491F901E450FE4FC491CC2319
:10182000C1F0162F81110E942108EC2FF0E0EE0F7D
:10183000FF1FE155FE4FA591B4919FB7F894111188
:1018400004C08C91D095D82302C0EC91DE2BDC93A0
:101850009FBFDF91CF911F910895CF93DF9390E0C9
:10186000FC01E05FFD4F2491FC01E450FE4F8491A8
:10187000882361F190E0880F991FFC01EB55FE4F22
:10188000C591D491FC01E155FE4FA591B491611130
:1018900009C09FB7F8948881209582238883EC91B2
:1018A0002E230BC0623061F49FB7F8948881322FE9
:1018B000309583238883EC912E2B2C939FBF06C0F9
:1018C0008FB7F894E8812E2B28838FBFDF91CF91BB
:1018D00008958F929F92AF92BF92CF92DF92EF9234
:1018E000FF926B017C010E942D0D4B015C01C11424
:1018F000D104E104F104F1F00E942D0DDC01CB01D3
:1019000088199909AA09BB09883E9340A105B10528
:1019100070F321E0C21AD108E108F10888EE880EC0
:1019200083E0981EA11CB11CC114D104E104F10490
:1019300019F7DDCFFF90EF90DF90CF90BF90AF9081
:101940009F908F900895CF92DF92EF92FF921F9316
:10195000CF93DF93182F80E090E8ACE6B0E080935F
:10196000CA039093CB03A093CC03B093CD036093B1
:101970009E02C12FCF71C0939D0264E170E080E0B0
:1019800090E00E94690CCC2369F080E396E090938C
:101990000501809304018091690083608093690050
:1019A000E89A07C0E8988DE391E090930501809351
:1019B00004012A9A229A2A9A84B18C6284B980E519
:1019C0008CBD8DB581608DBD6AEA8FEA0E94F005FD
:1019D0008FE20E94FF058A3AB9F765E58FEA0E9417
:1019E000F0058FE20E94FF058535B9F7CDECD1E017
:1019F000FE018491882339F03196649180680E94B9
:101A0000F0052296F5CF60919E0281EB0E94F005D1
:101A1000C090CA03D090CB03E090CC03F090CD03EC
:101A2000B7018827992787E80E94F00599278F2D0D
:101A30007E2D6D2D88E80E94F0056C2D89E80E94AE
:101A4000F00584E080939C02812FDF91CF911F915C
:101A5000FF90EF90DF90CF9008953FB7F89480917A
:101A6000E1039091E203A091E303B091E40326B572
:101A7000A89B05C02F3F19F00196A11DB11D3FBFC6
:101A8000BA2FA92F982F8827820F911DA11DB11D54
:101A9000BC01CD0142E0660F771F881F991F4A9550
:101AA000D1F708951F920F920FB60F9211242F9322
:101AB0003F938F939F93AF93BF938091DC0390915B
:101AC000DD03A091DE03B091DF033091E00323E05A
:101AD000230F2D3720F40196A11DB11D05C026E866
:101AE000230F0296A11DB11D2093E0038093DC0318
:101AF0009093DD03A093DE03B093DF038091E103B5
:101B00009091E203A091E303B091E4030196A11D3B
:101B1000B11D8093E1039093E203A093E303B0939C
:101B2000E403BF91AF919F918F913F912F910F90BF
:101B30000FBE0F901F901895CF93DF93CDB7DEB7F0
:101B400061970FB6F894DEBF0FBECDBF789484B511
:101B5000826084BD84B5816084BD85B5826085BDA9
:101B600085B5816085BD80916E00816080936E0037
:101B70001092810080918100826080938100809129
:101B800081008160809381008091800081608093DA
:101B900080008091B10084608093B1008091B0009A
:101BA00081608093B00080917A00846080937A0095
:101BB00080917A00826080937A0080917A008160BF
:101BC00080937A0080917A00806880937A001092E6
:101BD000C10064E670E080E090E00E94690C61E082
:101BE00086E00E942D0C61E086E00E94FE0B61E021
:101BF00081E10E942D0C60E081E10E94FE0B60E01B
:101C000085E10E942D0CE0911C03F0911D0382E000
:101C10008083E0911803F09119031082E0911A0378
:101C2000F0911B0383E3808310922403E09120034F
:101C3000F091210386E08083E0911E03F0911F0361
:101C4000808180618083E0911E03F0911F03808179
:101C500088608083E0911E03F0911F03808180687B
:101C60008083E0911E03F0911F0380818F7D80832C
:101C700061E081E10E94FE0B82E390E00E940F0789
:101C8000E091BC03F091BD03138615861486DF0135
:101C90001B9633961E92AE17BF07E1F71092BA0358
:101CA0001092BB0311E0BE016F5F7F4F8091BC03B8
:101CB0009091BD030E94530B882309F45CC067E038
:101CC000CE0101960E94FB0498858913ECCF809188
:101CD000B603811127C08091BC039091BD030E947F
:101CE000B905BE016F5F7F4F8091BC039091BD032A
:101CF0000E949A0540E064EB8091BC039091BD0383
:101D00000E9466058091BC039091BD030E9413055B
:101D1000082F8091BC039091BD030E94B905002358
:101D200009F46BC50091B703CE0101960E94210B07
:101D3000801718F48091B70304C0CE0101960E9469
:101D4000210B8093B7038091BA038F5F8093BA030E
:101D50008981883209F454C538F4803109F450C5BA
:101D6000823209F0A0CF4CC58B3309F449C58234C7
:101D700009F099CF45C51092B8030091BA0310E05D
:101D80001093A2010093A10160E081E10E94FE0B8B
:101D9000012B19F081E08093F601809164008F7728
:101DA0008093640082E10E94D50B019731F083E1BA
:101DB0000E94D50B019709F070C01092A0021092FA
:101DC0009F021092E90210920B031092E70211E0B9
:101DD0001093E6021092C10261E082E10E94FE0BC4
:101DE00061E083E10E94FE0B8091B9008E7F8093B9
:101DF000B9008091B9008D7F8093B90088E4809309
:101E0000B80085E48093BC008CE792E090934B018E
:101E100080934A018DE792E09093490180934801B5
:101E20001093E80280E480930A031092E902109272
:101E30000B0381E00E94D209811102C010939E0120
:101E400062E070E082E091E00E94940A68E070E055
:101E5000CE0101960E942E0A62E070E080E091E0DF
:101E60000E94940A66E070E0CE0101960E942E0A5C
:101E7000898190E09093A00180939F0180916400FC
:101E800080688093640080919F019091A0018D30C3
:101E9000910531F04497029718F01092F70103C0B2
:101EA00081E08093F7016AE070E080E090E00E94BA
:101EB000690C62ED85E00E94A30C60E086E00E9460
:101EC000FE0B8FE491E00E94C20882E391E00E9441
:101ED0004A080E945C0885E291E00E94DD0889E1E1
:101EE00091E00E94DD0860ED77E080E090E00E94E4
:101EF000690C8FE091E00E94C2086091A10170918D
:101F0000A20180E090E04AE00E9460088CEE90E040
:101F10000E94DD088091F7018823C9F185ED90E0EA
:101F20000E94C20880919F019091A0010E94F30835
:101F30000E948E078AEC90E00E94C20860919C018A
:101F400070919D01072E000C880B990B0E94E015E3
:101F500020E030E048EC52E40E9436150E94090966
:101F60008FEB90E00E94C20860919A0170919B01F2
:101F7000072E000C880B990B0E94E01520E030E042
:101F800048EC52E40E9436150E9409090AC084EA0E
:101F900090E00E94C20880919F019091A0010E9450
:101FA000F30860ED77E080E090E00E94690C82E940
:101FB00090E00E94DD0889E890E00E94C2084AE0B3
:101FC00065E070E080E090E00E9460080E945C089C
:101FD00084E790E00E94DD0888E690E00E94C20855
:101FE0004AE062ED70E080E090E00E9460080E94AC
:101FF0005C0864E170E080E090E00E94690C62E0BF
:1020000085E00E942D0C62E087E00E942D0C62E0CA
:1020100088E00E942D0C62E089E00E942D0C62E0B5
:102020008EE00E942D0C62E084E10E942D0C62E0A3
:1020300083E00E942D0C62E084E00E942D0C80B7AA
:10204000806880BF80916400806880936400809184
:102050006400886080936400F1E58F2EF1E09F2E8C
:10206000A4E03A2EB7E42B2E8E01075F1F4F89ECB8
:10207000A82EBB24BA942FB7F8948091DC039091DA
:10208000DD03A091DE03B091DF032FBF8093080230
:1020900090930902A0930A02B0930B0280919C02D4
:1020A000843019F0853021F131C010925301109223
:1020B000990160919E028FEF9FEF0E941806909306
:1020C0004F0180934E0190924D0180924C0125E08A
:1020D00020939C020E940E0660E885EA0E94F005AB
:1020E00080E10E94020662E08EE90E94F0050EC0C7
:1020F000809153012091990190E0049630E082177D
:1021000093073CF080919901883418F48FEF9FEF8A
:1021100026C030929C0284E00E9402068091530106
:1021200020914E0130914F01232B09F06FC383346E
:1021300008F06CC38091520186FF6BC330919D0201
:102140003F3109F466C3209152012F7181E090E084
:10215000231302C080E090E09195819591099093BE
:10216000A4018093A3018091A3019091A401019601
:1021700009F461C08091A3019091A401892B09F019
:102180005AC089E691E00E94C208E0905301F12C08
:1021900087E691E00E94C208809152018F7190E021
:1021A0000E94E90885E691E00E94C208D12C8D2D9D
:1021B00090E08E159F0584F4FC01EC5AFE4F60817F
:1021C00070E080E090E04AE00E94600883E691E0E1
:1021D0000E94C208D394EBCF81E691E00E94C2082E
:1021E0008091500190E09595879591958195910901
:1021F0000E94E9088FE591E00E94C2080E945C08F5
:102200008091520185FF11C08091520187FD0DC060
:102210008091520186FD00C3809152018F71806CC4
:1022200040E060E070E00E949B0669E170E082E0BF
:1022300090E00E94E807F090EB01FF20C9F0809148
:102240009C028530A9F480919901811111C03092CE
:102250009C0284E00E940206F1E6FF1609F4DEC249
:1022600080E046E465EA71E00E949B061092EB0173
:102270008091080290910902A0910A02B0910B028C
:10228000409104025091050260910602709107028C
:1022900084179507A607B70768F040910002509190
:1022A0000102609102027091030284179507A6074C
:1022B000B70780F4109200021092010210920202FD
:1022C000109203021092040210920502109206026C
:1022D00010920702409100025091010260910202A7
:1022E00070910302841B950BA60BB70B81369A4E97
:1022F000A105B105F0F088E791E00E94DD086AE0F1
:1023000070E080E090E00E94690C62ED85E00E9440
:10231000A30C8091080290910902A0910A02B09149
:102320000B028093000290930102A0930202B093EB
:1023300003028091080290910902A0910A02B091D3
:102340000B024091040250910502609106027091C7
:102350000702841B950BA60BB70B81339547A1058C
:10236000B10508F447C262E370E081E090E00E94AA
:10237000E80720927C0080917A00806480937A0044
:1023800080917A0086FDFCCF609178008091790081
:1023900070E0782B072E000C880B990B0E94E0153B
:1023A0002FE335E34EE450E40E9495160E94A815F1
:1023B0007093F9016093F8018091F701882371F11E
:1023C0000E948E0760919C0170919D01072E000C68
:1023D000880B990B0E94E0152DEC3CEC4CEC5DE376
:1023E0000E9495160E94A8157093FB016093FA0154
:1023F00060919A0170919B01072E000C880B990B3C
:102400000E94E0152DEC3CEC4CEC5DE30E9495162F
:102410000E94A8157093FD016093FC018091F60164
:10242000882309F4A4C161E081E10E94FE0B82E3EC
:1024300090E00E940F078CEE91E00E94210B8C30FF
:1024400009F49FC0BE016F5F7F4F8CEE91E00E9448
:10245000BE0A882309F495C08091EC01803109F40B
:1024600090C08FE78D838091BC039091BD030E9443
:10247000B9056CEE71E08091BC039091BD030E94A0
:102480009A0540E06EE48091BC039091BD030E94E8
:10249000660540E06B818091BC039091BD030E9472
:1024A000660540E06C818091BC039091BD030E9461
:1024B00066058091EC01803141F040E06D818091B2
:1024C000BC039091BD030E9466058091BC0390916E
:1024D000BD030E94B9056CEE71E08091BC03909140
:1024E000BD030E949A054091B60368E48091BC0345
:1024F0009091BD030E94660564E170E080E090E089
:102500000E94690C8091B603882331F06AE070E084
:1025100080E090E00E94690C8091BC039091BD0323
:102520000E94B9058091B7038D3020F48CE0809330
:10253000B70327C08CE08093B703E12CF12C809186
:10254000BA0390E0E816F906E4F4DE2CE091BC034F
:10255000F091BD03138615861486DF011B96339612
:102560001E92EA17FB07E1F7C12CBE01665F7F4FA1
:102570008091BC039091BD030E94530B811150C107
:1025800059C18091BC039091BD030E94B90540E000
:102590006CEC8091BC039091BD030E946605409154
:1025A000B60364E48091BC039091BD030E9466056C
:1025B0008091B803882309F449C0E091B703E9503A
:1025C000E33040F4F0E0EE0FFF1FE85FFE4F608164
:1025D000718102C06EEE72E08091B903882381F1AF
:1025E0008091B60381112CC08FB7F8944090DC0322
:1025F0005090DD036090DE037090DF038FBF6B01AE
:10260000770FEE08FF088091BC039091BD030E94F4
:1026100013058130D9F02FB7F8948091DC039091A5
:10262000DD03A091DE03B091DF032FBF8C199D095C
:10263000AE09BF0984159505A605B70520F306C0A8
:10264000072E000C880B990B0E94690C8EEE92E00D
:102650000E940F07BE016F5F7F4F8CEE91E00E94DA
:10266000BE0A882369F12A8130E0C901982F8827A2
:10267000990F990F990F698128E0629FB001112489
:102680009C01262B372B8091EC018031E1F4688589
:1026900070E08F81AB01481B5109CA019695982FB4
:1026A0008827979587950E94071760517109207FA9
:1026B00053E0220F331F5A95E1F7620F731F04C0D6
:1026C00060E874EE01C0B901613854EE75076CF032
:1026D000072E000C880B990B0E94E01520E030E0DB
:1026E00040E05CE30E94951604C060E070E08EEF6D
:1026F00092EC0E94A8156B017C017093F501609328
:10270000F40160E081E10E94FE0BB6010D2C000C8B
:10271000880B990B0E94E0152B013C0120E030E072
:102720004AEF52E40E949016181654F020E030E070
:102730004CE552ECC301B2010E94311587FF05C080
:10274000B092F501A092F4010AC02AE02C9DC001CC
:102750002D9D900D11249093F5018093F4018091AB
:10276000F4019091F5019093FF018093FE0188E0C0
:10277000E8EFF1E0DE01119601900D928A95E1F704
:1027800084E791E00E94C2084AE065E070E080E0E2
:1027900090E00E946008CE0101967C0182E791E002
:1027A0000E94C208F70161917F0170E080E090E033
:1027B0004AE00E9460080E151F0581F78CE691E043
:1027C0000E94C2080E945C086AE070E080E090E02D
:1027D0000E94690C8091080290910902A0910A025E
:1027E000B0910B028093040290930502A09306021D
:1027F000B09307020E9440023ECC1093B60392CAE7
:102800008091BB038F5F8093BB034DCA81E090E052
:10281000A6CC80E090E0A3CC80E802CD80E221CD80
:10282000DC101DC067E0CE010A960E94FB04998966
:10283000891315C0D090B703CE010A960E94210BD0
:102840008D1518F48091B70304C0CE010A960E943A
:10285000210B8093B703FFEFEF1AFF0A70CEC394EA
:10286000DC1440F382CE10920F0310920E0388EE18
:1028700093E0A0E0B0E08093100390931103A09345
:102880001203B093130322E131E030930D03209340
:102890000C0325EC30E0309319032093180324EC4B
:1028A00030E030931B0320931A0320EC30E0309388
:1028B0001D0320931C0321EC30E030931F03209371
:1028C0001E0322EC30E0309321032093200326ECFA
:1028D00030E03093230320932203109225031092BB
:1028E000260310922703109228031092AC03109233
:1028F000AB038093AD039093AE03A093AF03B0936B
:10290000B00384E291E09093AA038093A90360E06E
:1029100080E10E942D0CE0E2F2E0E491E093CE032E
:10292000ECE0F2E0E491F0E0EE0FFF1FEE50FE4F1E
:10293000859194919093D0038093CF031092D90303
:102940001092DB031092DA03E9EDF3E0129283E0D8
:10295000E13DF807D9F78EEC93E09093BD038093A7
:10296000BC031092BA031092BB031092B60389E025
:102970008093B70381E08093B8038093B9031092EA
:10298000C9031092C80308955058BB27AA270E9474
:10299000DC140C9456160E94481638F00E944F160C
:1029A00020F039F49F3F19F426F40C9445160EF4E8
:1029B000E095E7FB0C943F16E92F0E94671658F349
:1029C000BA17620773078407950720F079F4A6F514
:1029D0000C9489160EF4E0950B2EBA2FA02D0B0146
:1029E000B90190010C01CA01A0011124FF27591B54
:1029F00099F0593F50F4503E68F11A16F040A22F5A
:102A0000232F342F4427585FF3CF469537952795CA
:102A1000A795F0405395C9F77EF41F16BA0B620BC9
:102A2000730B840BBAF09150A1F0FF0FBB1F661F10
:102A3000771F881FC2F70EC0BA0F621F731F841F53
:102A400048F4879577956795B795F7959E3F08F079
:102A5000B0CF9395880F08F09927EE0F979587953B
:102A600008950E941B1608F481E008950E944A15FB
:102A70000C9456160E944F1658F00E94481640F0CB
:102A800029F45F3F29F00C943F1651110C948A16DB
:102A90000C9445160E94671668F39923B1F35523E9
:102AA00091F3951B550BBB27AA2762177307840761
:102AB00038F09F5F5F4F220F331F441FAA1FA9F3F7
:102AC00035D00E2E3AF0E0E832D091505040E695E5
:102AD000001CCAF72BD0FE2F29D0660F771F881F46
:102AE000BB1F261737074807AB07B0E809F0BB0B39
:102AF000802DBF01FF2793585F4F3AF09E3F51054D
:102B000078F00C943F160C948A165F3FE4F3983EDD
:102B1000D4F3869577956795B795F7959F5FC9F735
:102B2000880F911D9695879597F90895E1E0660FB6
:102B3000771F881FBB1F621773078407BA0720F02F
:102B4000621B730B840BBA0BEE1F88F7E095089598
:102B50000E94AF156894B1110C948A1608950E94D2
:102B60006F1688F09F5798F0B92F9927B751B0F09A
:102B7000E1F0660F771F881F991F1AF0BA95C9F701
:102B800014C0B13091F00E948916B1E008950C9400
:102B90008916672F782F8827B85F39F0B93FCCF3B3
:102BA000869577956795B395D9F73EF4909580957E
:102BB000709561957F4F8F4F9F4F0895E89409C09E
:102BC00097FB3EF490958095709561957F4F8F4F60
:102BD0009F4F9923A9F0F92F96E9BB279395F69576
:102BE000879577956795B795F111F8CFFAF4BB0FF4
:102BF00011F460FF1BC06F5F7F4F8F4F9F4F16C058
:102C0000882311F096E911C0772321F09EE8872FE1
:102C1000762F05C0662371F096E8862F70E060E09D
:102C20002AF09A95660F771F881FDAF7880F969516
:102C3000879597F90895990F0008550FAA0BE0E8BA
:102C4000FEEF16161706E807F907C0F0121613066E
:102C5000E407F50798F0621B730B840B950B39F4AE
:102C60000A2661F0232B242B252B21F408950A2614
:102C700009F4A140A6958FEF811D811D089597F954
:102C80009F6780E870E060E008959FEF80EC089512
:102C900000240A941616170618060906089500243B
:102CA0000A9412161306140605060895092E0394B5
:102CB000000C11F4882352F0BB0F40F4BF2B11F429
:102CC00060FF04C06F5F7F4F8F4F9F4F089557FD88
:102CD0009058440F551F59F05F3F71F04795880F8A
:102CE00097FB991F61F09F3F79F087950895121621
:102CF00013061406551FF2CF4695F1DF08C01616CD
:102D000017061806991FF1CF86957105610508947D
:102D10000895E894BB2766277727CB0197F9089594
:102D20000E941B1608F48FEF08950E94A8160C94B9
:102D300056160E94481638F00E944F1620F0952330
:102D400011F00C943F160C94451611240C948A161D
:102D50000E94671670F3959FC1F3950F50E0551FC1
:102D6000629FF001729FBB27F00DB11D639FAA27E0
:102D7000F00DB11DAA1F649F6627B00DA11D661F2F
:102D8000829F2227B00DA11D621F739FB00DA11D50
:102D9000621F839FA00D611D221F749F3327A00D0A
:102DA000611D231F849F600D211D822F762F6A2FA6
:102DB00011249F5750409AF0F1F088234AF0EE0F0B
:102DC000FF1FBB1F661F771F881F91505040A9F738
:102DD0009E3F510580F00C943F160C948A165F3F7D
:102DE000E4F3983ED4F3869577956795B795F79574
:102DF000E7959F5FC1F7FE2B880F911D96958795EC
:102E000097F908950E941B16880B990B089597FB5C
:102E1000072E16F4009407D077FD09D00E944C17B6
:102E200007FC05D03EF4909581959F4F08957095CD
:102E300061957F4F0895A1E21A2EAA1BBB1BFD01CD
:102E40000DC0AA1FBB1FEE1FFF1FA217B307E40789
:102E5000F50720F0A21BB30BE40BF50B661F771FE1
:102E6000881F991F1A9469F76095709580959095C1
:102E70009B01AC01BD01CF010895A29FB001B39F9A
:102E8000C001A39F700D811D1124911DB29F700D73
:102E9000811D1124911D0895AA1BBB1B51E107C080
:102EA000AA1FBB1FA617B70710F0A61BB70B881FDA
:102EB000991F5A95A9F780959095BC01CD01089569
:102EC000EE0FFF1F0590F491E02D099481E090E052
:0A2ED000F8940C946B17F894FFCFF0
:102EDA00FCC9FA0F3D013D015E00BC00770100000C
:102EEA000000D1013E0168011E02990177018B01A0
:102EFA0000000000D702AA0222037E02A2028E026A
:102F0A007F02312E302E30000D0A006E616E00698C
:082F1A006E66006F7666000090
:00000001FF
